:020000041000EA
:1000000000B5324B212058609868022188439860DF
:10001000D860186158612E4B002199600221596106
:100020000121F02299502B49196001219960352056
:1000300000F044F80222904214D00621196600F024
:1000400034F8196E01211966002018661A6600F04E
:100050002CF8196E196E196E052000F02FF8012189
:100060000842F9D1002199601B49196000215960AB
:100070001A491B48016001219960EB211966A021F2
:10008000196600F012F800219960164914480160C1
:100090000121996001BC002800D000471248134993
:1000A000086003C880F30888084703B5996A0420EC
:1000B0000142FBD001200142F8D103BD02B5186610
:1000C0001866FFF7F2FF186E186E02BD00000240BE
:1000D000000000180000070000035F00212200005C
:1000E000F4000018222000A00001001008ED00E03C
:1000F00000000000000000000000000074B24E7A12
:1001000000200420F7010010C3010010C5010010F9
:10011000C1010010C1010010C1010010C101001097
:10012000C1010010C1010010C1010010C701001081
:10013000C1010010C1010010C9010010CB01001065
:10014000CD010010CD010010CD010010CD01001037
:10015000CD010010CD010010CD010010CD01001027
:10016000CD010010CD010010CD010010CD01001017
:10017000CD010010CD010010CD010010CD01001007
:10018000CD010010CD010010CD010010CD010010F7
:10019000CD010010CD010010CD010010CD010010E7
:1001A000CD010010CD010010CD010010CD010010D7
:1001B000CD010010CD010010CD010010CD010010C7
:1001C00000BE00BE00BE00BE00BE00BEEFF3058054
:1001D000103800BEF2EB88713C050110600501107B
:1001E0003402001090A31AE700201F49086006C8D7
:1001F00081F3088810471D48006800282FD10DA4FE
:100200000ECC002902D000F012F8F9E71849194A7B
:10021000002000E001C19142FCD1174988471749ED
:1002200088471749884700BEFDE701C901C29A42C5
:10023000FBD3704760050110C0000020FC1A0020AD
:100240009C1F011000000420000004209C1F0110CE
:10025000001004200010042000000000704709482E
:1002600003F0B0F90047000008ED00E0000000D006
:10027000001B0020A4290020E11D001079040010BB
:10028000091F00105756000006005250ABB36053D0
:10029000D8F3001006005250861C0302F8F3001039
:1002A000060052505422A29D04F400100500525042
:1002B000DE65F4689C1F0110F8B5C0460448054B84
:1002C00010B5834203D0044B002B00D0984710BDDB
:1002D000FC1A0020FC1A0020000000000648074914
:1002E000091A8B10C90FC91810B5491003D0044B57
:1002F000002B00D0984710BDFC1A0020FC1A0020EB
:100300000000000010B5074C2378002B09D1FFF73F
:10031000D5FF054B002B02D0044800E000BF0123AD
:10032000237010BDA81D00200000000078F0001010
:10033000054B10B5002B03D00449054800E000BF71
:10034000FFF7CCFF10BDC04600000000AC1D002030
:1003500078F0001010B5182000F028F9D023802282
:100360001B0652045A62042000F020F9052000F018
:100370001DF90B490B4806F0D7FA0321042000F0C1
:10038000E5F80321052000F0E1F800220121042016
:1003900000F0F4F800220121052000F0EFF810BD74
:1003A000801A0600001100200F22612310B584B0CE
:1003B0006A44137000230400552100930C48013354
:1003C00006F0DCFA0123227B010053402373D02383
:1003D0001B06002A07D0802252045A61054804F007
:1003E000C9F804B010BD802252049A61F6E7C046F5
:1003F0000011002078F00010B82010B5400006F081
:10040000EFFC1A4A0023026180240122184983610B
:10041000C1664061C365036603670251154CC0673E
:100420008467C4240351043403510C340151D8218E
:10043000040043503C31435078340C31445044184C
:100440002C39445004314250113C04314254FF3C99
:100450006C3144500C3959344350FF3420394450E6
:10046000043142504432FF32835410BD5503001012
:1004700084F00010A903001010B50021002007F03F
:1004800011FF10BD7047C046094B00B51A68002324
:1004900089B0069305930493039302930193013368
:1004A00000210093034807F031FD09B000BDC046AC
:1004B000F0200020181C0020014B03600120704731
:1004C000181C002070B5FFF797FF01001A4A103181
:1004D000536E82600024196000250023411CFF3107
:1004E00003730C604D600025144CD26D8C60CD60A0
:1004F000203911608E225200835080250200002492
:100500002D06B8320465456514605560A0220125AA
:100510008363835001220023094C6D42503982626B
:10052000C362046245620A604B600123054A883059
:100530005B420260436070BD181C002000CA9A3BF9
:100540000000FFFF0100FFFF7047C046094A83001B
:1005500094464022634410B51C68C0006240C02429
:1005600014408022520113431C60034B9C4660449C
:10057000416010BD04C00140004001400A4B8000B2
:100580009C4604236044002901D00C230821002A42
:1005900000D10B00026853400C221A4080235B01FB
:1005A000184302607047C04604C001400123D022B6
:1005B0008340120693629361094A83009446402265
:1005C00063441968C0004A40C02111408022520192
:1005D00013431960034B9C460523604443607047F6
:1005E00004C0014000400140024B18688007C00F62
:1005F0007047C04600C0064070B5EFF3108C72B66D
:100600000D4D2B68002BFCD0BFF35F8F0724CB0868
:10061000C618C05C01230C40A3401C0004400342E8
:1006200007D103433370BFF35F8F2C608CF31088C6
:1006300070BD100001F086FC2C0100D0F8B54746D3
:10064000CE46884680B5EFF3108C72B6214D2C68EB
:10065000002CFCD0BFF35F8F9A422CD8D408072718
:10066000055D061901241740BC402C421FD007210C
:100670000127894609E0D408055D06194C46390072
:100680001440A1400C00294211D001329342F2D211
:1006900001204042BFF35F8F00220E4B1A608CF3A3
:1006A000108800280FDBC0BCB946B046F8BD2C430B
:1006B00010003470EEE7BFF35F8F00232B608CF3E4
:1006C0001088012040424346002BECD0089801F0EE
:1006D00039FCC0462C0100D00021044B044ABFF372
:1006E0005F8F02C39342FAD17047C046000100D029
:1006F000800100D0044A1078431CDBB2172B00D9CC
:10070000102313707047C0462810002000B5054B19
:1007100083B00100009318221F230348FFF78EFFC8
:1007200003B000BD90F00010882300200123834017
:10073000002904D0034A1360034A13607047034A38
:100740001360FBE780E200E000E100E080E100E010
:1007500001238340014A13607047C04600E200E075
:10076000084B10309B688000C358002B07D0064A06
:1007700000209B1A2F229A424041C0B270470020AD
:10078000FCE7C04600ED00E02C100020024B1030CA
:100790009B688000C058704700ED00E070B50D0008
:1007A000EFF3108672B60F4A1368002BFCD0BFF32C
:1007B0005F8F0D4B10309B6884001B590B4A93428E
:1007C00003D09D4201D001F0D5FB074B9B681D5122
:1007D000BFF35F8FBFF35F8F0022024B1A6086F377
:1007E000108870BD240100D000ED00E0CD010010A4
:1007F000F0B557464E46DE464546E0B585B00600A4
:1008000002911700EFF3108B72B6674A1368002B42
:10081000FCD0BFF35F8F0025644B5D579A46002DD7
:1008200000DAA4E06B00624C03935B199B009846CE
:10083000A146C1444B4652469B79103613705D4B1E
:10084000B2009B68019299580B1B2F2B34D95A4B3D
:10085000994200D0A4E0039B584A9C46584B6544FB
:10086000AD006353434602336519E418554B01212B
:10087000043B1B1B1B055B0D13436B80524BEF713D
:10088000AB80FF23AB71029BAB604B460B4319005F
:10089000484B019A9B689950BFF35F8FBFF35F8FFE
:1008A0000022414B1A608BF3108805B0F0BCBB46A8
:1008B000B246A946A046F0BD01200A008243D37982
:1008C000BB422FD845464E46130040491B1B5B4197
:1008D0005943090D3A4B63533A4B02356519043BB2
:1008E0005B1B1B05354D5B0D2B4373800426B44603
:1008F000E0444444131F1B1B4C46A17102991B0585
:10090000A16049465B0D2B43A380314BE771014346
:100910001360BDE75800C01880002018C679BE4299
:100920002BD902000623D356002BF3DA101D824682
:100930002848804604267642B446E14450464E4656
:10094000361A3005400D824656461C4895710643BE
:100950009680039A944665441D4AAD00641922604E
:100960004246A371029BA280E771A36090E701F069
:1009700001FB002553465D5754E7101D82469088C1
:100980004005001584464046D4446646043020188D
:10099000301AE0260005400D360230438046C9E794
:1009A00001F0E8FA57E7C046240100D09B29002057
:1009B0002C10002000ED00E0CD01001000E0FFFF52
:1009C00000A1FFFF5C10002001BDFFFFAAAA0000EC
:1009D0000148804701BD0000F0B5DE4657464E464F
:1009E0004546E0B50C0083B0EFF3108972B6584A63
:1009F0001368002BFCD0BFF35F8F564B9A6803003F
:100A000010339F00D559544A9046954232D0A542A2
:100A100043D0524EAA1B2F2A2CD801228240924644
:100A200051464F4A12681140019151464D4A11609A
:100A3000BFF35F8FEFF305829346002A33D1012382
:100A40002A009A4393689C4208D177E04B005B18D8
:100A50009B00F3189968A1422AD01A00062151562A
:100A60000029F3DA019B002B19D052463E4B1A6045
:100A70003B4B1A60374B9B68DD51BFF35F8FBFF371
:100A80005F8F0022324B1A6089F3108803B0F0BCEC
:100A9000BB46B246A946A046F0BD1500EAE752465D
:100AA000304B1A60E6E79342C9D001F063FAC6E71B
:100AB00006215956002921DB4A00501880003418BD
:100AC0008046A0689860E079D87106202056987119
:100AD000002824DBA488F01A640524154444001976
:100AE000E0240005400D24022043988052181F4B3B
:100AF0009200B6181A781970B271B3E759460029F6
:100B00000FD1FF3191711A49918018490A789A7171
:100B1000184A9B1B5B415A43120D0A70A2E7164804
:100B2000E3E7164A1649D21A083A5002400D01432B
:100B30009980144952080A43DA8093E706215156F6
:100B400013000029B8DA5A46002AEAD14546DCE704
:100B5000240100D000ED00E0CD0100102C10002099
:100B600000E100E080E100E080E200E09B2900205D
:100B700001BDFFFFAAAA000001BD00006610002011
:100B800000F0FFFF00F8FFFF70B5EFF305810124CF
:100B90000443EFF3108C72B6214A1368002BFCD08B
:100BA000BFF35F8F1F4B05001F4AED1A6D416A436B
:100BB000120D1E4D8900AE6852B27658A6421CD066
:100BC0000621595691421CD012215956914222D0E9
:100BD0001E215956914220D02A2159560324914270
:100BE00010D0134B19781A708171BFF35F8F0022F8
:100BF0000B4B1A608CF3108870BDAB680D4C5C50C9
:100C0000EFE700246100091989005B18FF21997141
:100C100009499980E5E70124F4E70224F2E7C04698
:100C2000240100D02C100020AAAA000000ED00E052
:100C30009B290020CD01001001BDFFFF054B064A96
:100C40001360064A136053609360D360136153616D
:100C5000936170478080808000E400E004E400E05D
:100C600000B5074B83B0010000930022052305481F
:100C7000FFF7E4FC002801DB1F23181A03B000BDB6
:100C8000ACF00010A129002070B504000E00150082
:100C9000FFF730FD0100200000F006F8A680E58097
:100CA000BFF35F8F70BDC046024B9C466144890014
:100CB000016070474000003410B50400FFF71AFDD2
:100CC00001002000FFF7F0FFFF232371BFF35F8FC8
:100CD00010BDC04610B50400FFF70CFD0100200058
:100CE000FFF7E2FFFF23A380BFF35F8F10BDC04675
:100CF00010B504000120FFF709FD044B9C46604439
:100D000080002060BFF35F8F10BDC04640000034FC
:100D1000034B9C46614489000160BFF35F8F7047BD
:100D20004000003483680B4810B584466144624437
:100D3000090112019A18591854684B6801209C4205
:100D400001D802D00020C0B210BD12680B689A42D0
:100D5000F9D8F7E7FFFFFF0F0A4B1968EFF3108090
:100D600072B60A68002AFCD0BFF35F8F1B68BFF31E
:100D70005F8F00221A6080F3108840BF002000219E
:100D80007047C04668290020F8B557464E4645468C
:100D9000DE46E0B599460CAB1C780DAB1B7806001F
:100DA00090469A460768002C11D1BC7B002C42D09B
:100DB00065003B682D19033D59194B78BB73002B17
:100DC00000D1FB7300238B704B700B7004E0650047
:100DD0003B682D19033D5919B2682A4B9446424687
:100DE000E3181B0163441A604A465A600A9A9A60E3
:100DF0000B9ADA6000238B704B700B707B7B9B46E9
:100E0000002B2BD022005946B8687B6898473A6877
:100E1000002816D05B4658465B005B445519033BDF
:100E2000A870D118D35C002B00D06B705B460C709F
:100E30007B73A34513D0F0BCBB46B246A946A0467F
:100E4000F8BD5B465B005B44033BD3189C705119B3
:100E5000525D002A00D05A705B460B707C7342468C
:100E60004B46307D00F034FB051E06D05346002B68
:100E700003D12100306800F04FFD0E9B002BDAD02B
:100E80001D70D8E7FFFFFF0FF0B5DE4657464E4610
:100E900045460023E0B58BB00893674B8200D458D9
:100EA00000239B46099000F099FA626806000F0043
:100EB000EFF3108572B61368002BFCD0BFF35F8F81
:100EC00023689C465B7B9946002B00D169E0A268B1
:100ED0005A4B90464B441B01984443461A685B6842
:100EE00010001900801BB941002900DC63E009985B
:100EF00000F0EEFA002300229846002306920793A2
:100F000000239A466368BFF35F8F5A461A6085F3E1
:100F100010885346002B08D10028C4D10BB0F0BC78
:100F2000BB46B246A946A046F0BD089B4146180202
:100F30004B461843D047626806000F00EFF3108558
:100F400072B61368002BFCD0BFF35F8F002F50DB0D
:100F500033003B4302D02369002B61D12368D97B46
:100F6000002907D04A00521819688C464946624445
:100F7000033A51709A7B002A01D14A469A734A4635
:100F8000DA734B46E168013BCA5C0132CA545B46E6
:100F900023616368BFF35F8F5A461A6085F3108838
:100FA00081E700230022984600230692079300233E
:100FB00000209A46A6E7002902D1002800D096E733
:100FC0000021604600F026FC43461A685B680692E2
:100FD000079343469B689A464346DB689846E36816
:100FE0004B44013B1B7808931B0203432361002001
:100FF00088E72369002BB1D0069A079B921BBB415F
:10100000002B15DB594604910121039149460291B9
:1010100041460191514620000091FFF7B5FEB6E729
:1010200000F0DCF932003B0012184B41002BE9DAEA
:101030000122034B5242E5E748280020FFFFFF0F43
:10104000FFFFFF7F10B5144C6368002B04D00A210A
:101050001248FFF729FE10BD2300114A1021206815
:1010600000F0F2FA032000F0ADF9032000F09AFA44
:1010700003200C4900F0E6F9FFF73CFB0A4B9C46C5
:1010800003232375D0231B061B6860446375074B3D
:1010900080006060DC60DAE77410002068290020BE
:1010A000250D0010890E0010400000344828002053
:1010B0000048704774100020F0B54E464546DE46A5
:1010C0005746E0B585B0019310AB1B78060003933B
:1010D00000239946984600927268EFF3108B72B61F
:1010E0001368002BFCD0BFF35F8F3568AC7B002CFE
:1010F0003DD067002B683F19033FDB195A78AA736C
:10110000002A00D1EA73B168474A8C4600980199D9
:10111000A21812016244106051600E9991600F99FB
:10112000D16042469A705A701A706B7B9A46002BB7
:1011300067D022001900A8686B6898472A680028C1
:1011400052D0534650465B005344D719033BB87006
:10115000D118D35C002B00D07B7053460C706B739E
:1011600054454FD0F3681B19013B187800E000206C
:101170007368BFF35F8F42461A608BF31088002CB0
:101180004FD04B46002B08D10002204305B0F0BCE5
:10119000BB46B246A946A046F0BD039B002B3ED0FD
:1011A0000E9B00200F999847030004000D000B438D
:1011B00035D000290ADA009A019B121BAB4100923C
:1011C0000193002B0ADB039B994685E700F006F9A3
:1011D00024184D4100940195002DF4DA0123134C9D
:1011E0005B4200930194EEE753465B005344033B9C
:1011F000D3189C70D119D25D002A00D05A70534682
:101200000B706C73307D009A019B00F061F9814690
:101210000028A7D02100306800F07EFBA2E7002064
:10122000B4E701204042B1E7FFFFFF0FFFFFFF7F60
:10123000407D7047F0B5EFF30583CE46474680B555
:1012400005000C0085B0002B12D02C4A0020536AF8
:101250009C4203D8926A0130AA4204D305B0C0BCB4
:10126000B946B046F0BDE01A421E9041C0B2F5E763
:10127000234E02930193234B0200009330000B0096
:10128000FFF71AFF031EE0DD20BF7168EFF3108740
:1012900072B60A68002AFCD0BFF35F8FDAB29446B8
:1012A0003068427B62451DD0FF221A4051008946BA
:1012B00001689144884649464144033989780029A8
:1012C00013D0F1681B0A88464244013A1278DBB217
:1012D0009A420FD07368BFF35F8F00221A6087F3C2
:1012E0001088B2E7FF221A40EBE732699342F1D14E
:1012F0003161EFE7614600F00FFBEBE7004005408E
:1013000074100020590D0010F0B5EFF30582D64699
:101310004F4646461000C0B51038EFF3108872B63D
:10132000214C2368002BFCD0BFF35F8F01231900F1
:1013300081401E4D1F006963AA461D4D29601D4D49
:101340002E78AC463500C5402F402B4209D1BFF363
:101350005F8F276088F31088E0BCBA46B146A84684
:10136000F0BD5346144D5F6A83005D59AF420ED302
:10137000124A8E439B5862461670BFF35F8F00225D
:10138000226088F31088002BE6D09847E4E70C4BE6
:1013900092009C46624413681360BFF35F8F002382
:1013A000236088F31088D7E7280100D0004005406B
:1013B0003C700540A02900207429002070220020E4
:1013C000D03F054010B50100024A0348FFF714F969
:1013D00010BDC046D0F0001099290020034B596A77
:1013E0000A00986A596A8A42FAD17047004005405B
:1013F00070B504000D00124A536A1900966A536AC8
:101400008B42FAD13000190024184D41AB4211D85B
:101410000ED02B000A494A6A9A42FCD307D1084AE7
:1014200002E0516A994202D1916AA142F9D370BD9A
:10143000A642EED9012301246442E5175B42E9E7A5
:101440000040054070B504000D00EFF3108672B641
:101450001A4A1368002BFCD0BFF35F8F002D1BD0FE
:101460002000FFF793F9164981420AD02000FFF7C8
:1014700095F901212000FFF759F90123A340114AF2
:101480001360114BA400E550BFF35F8F00220B4B9C
:101490001A6086F3108870BD0B4BA200D550012254
:1014A000A2400A4920000B7893430B700449FFF7D0
:1014B00093FA00212000FFF739F9E5E7280100D071
:1014C000091300103860054070220020A029002078
:1014D000F0B54F46D6464646C0B507002C4C616A6B
:1014E0000D00A66A616AA942FAD18B4208D805D0DC
:1014F0000120E0BCBA46B146A846F0BDB242F7D9D9
:10150000EFF3108A72B6234801680029FCD0BFF3BC
:101510005F8F0125BD4020491D4C884609788946CA
:101520002943C9B28C46414660460870391D1B48A4
:10153000890065630A51B9000B50216A00202942D5
:1015400019D0616A0800A66A616A8142FAD18B42A9
:1015500019D801D1B24216D8CC4516D00C4B1F2059
:101560001D625D6301230740BB400D4A1E381360B6
:1015700043464A461A70BFF35F8F0022054B1A603C
:101580008AF31088B5E70020F5E70120F3E7C046AD
:1015900000400540280100D0A02900207429002027
:1015A00080E200E0EFF3108C72B60A490B68002B62
:1015B000FCD0BFF35F8F01238340074A07481362C3
:1015C00002789A430270BFF35F8F00230B608CF3A5
:1015D00010887047280100D000400540A029002055
:1015E00070B5050014001600002915D00C00002A63
:1015F00012D080686B689847296800280ED0730065
:101600009B196200033B1219CB18033A9C7088188F
:101610008A5C002A15D10670200070BD63001B197A
:101620007200033B9219CB18033A9E7088188A5CAB
:10163000002A02D104703400EEE75A7004703400BE
:10164000EAE75A700670E7E730B583600023CCB252
:1016500043730133047342608373C4730D000068E5
:10166000012C06D9421C0133DBB2137003329C42B9
:10167000F9D1FF2129404B005918002340180338A5
:10168000437030BDF8B5CE46474606000C0080B525
:10169000002907D04D0003686D18033D5A1957788B
:1016A000002F04D12000C0BCB946B046F8BD790077
:1016B000C91903398846434459788946002159702D
:1016C000517073683A002100806898473368002899
:1016D00014D042469A18947059195B5D002B00D0C3
:1016E00053700F70270049463000FFF7CBFF3900D9
:1016F00002003000FFF774FF0400D3E74246414682
:101700005D19AF709A185B5C002B00D06B70147081
:10171000E9E7C046F0B557464546DE464E46E0B5D9
:101720000D006B0001685B19DF1E0400C85D83B00B
:101730000192CA19002850D043001B18033BCB1854
:101740005E78B446002E1AD1019E002E42D0E67B70
:10175000002E04D073009B19CB18033B5D70A37B54
:10176000002B00D1A573E57300282FD100235370FF
:1017700003B0F0BCBB46B246A946A046F0BD72001D
:101780006244033A89184A78904600224A7091468A
:101790005A70010032002000FFF722FF43468246C4
:1017A000002B07D05B0021684344033BCB185A78D9
:1017B000002A16D1424651462000FFF711FF21684A
:1017C000019BCA19002BC2D10028CFD043001B189F
:1017D000033BCB1800219970C8E7019B002BB6D1C1
:1017E000C4E75000801803380918487883464846F3
:1017F0004870587041462000FFF7F2FE5946804677
:101800002000FFF73FFF414602002000FFF7E8FEFF
:101810008046CFE7F0B557464546DE464E46E0B532
:1018200083B00191457B04006B0000685B19DF1EEB
:10183000C15DC219002952D04B005B18033BC3188D
:101840005E78B446002E1CD1019E002E44D0E67B6B
:10185000002E04D073009B19C318033B5D70A37B5B
:10186000002B00D1A573E573002931D10023280096
:101870005370617303B0F0BCBB46B246A946A046A4
:10188000F0BD72006244033A80184278904600220C
:10189000427091465A7020003200FFF7A1FE434685
:1018A0008246002B07D05B0021684344033BCB18E2
:1018B0005A78002A17D1424651462000FFF790FE81
:1018C000019B01002068C219002BC0D10029CDD096
:1018D0004B005B18033BC31800209870C6E7019BC0
:1018E000002BB4D1C2E7500080180338091848789B
:1018F000834648464870587041462000FFF770FE06
:10190000594680462000FFF7BDFE414602002000F8
:10191000FFF766FE8046CEE770B5040000292CD0A4
:10192000437B8B422ED005684800401803382818A6
:101930008278002A21D053009B18033BEA5CEE1802
:101940008A4202D11BE0002A08D053009B18033BB7
:10195000EB185A788A42F6D142785A700023012255
:10196000837043702000FFF7D5FE617B02002000EA
:10197000FFF736FE6073012000E0002070BD437861
:101980003370EBE701221900FFF7C4FE60730120FA
:10199000F4E7C04630B50C2083B000F0B9F9FEF78B
:1019A00023FE00280ED0994B994A1A605A609A601B
:1019B000DA601A615A619A61DA611A62954A5A626A
:1019C00003B030BD944CA06700F0F6F90122934BB0
:1019D0001A60636C012BFCD10322914B1A608E4A72
:1019E000936B012BFCD1013301218E4A8E48009369
:1019F000043300F03DF905238C4A009301218C4803
:101A000000F036F98B4B5A68FF2A02D88022520028
:101A10005A6080227D4C824B21691201854D1A60EB
:101A2000002907D0606901F027FE431C5800C01848
:101A30000338FDD2E0217F4B02201A68114080223A
:101A400052012A4311601968484003210140116086
:101A500004219A681142FCD08022802192012A43FD
:101A600009011160802252005A60734B2361734B4D
:101A70005968FF2900D85A600321684A6F4B1160EA
:101A800002399A681142FCD0E0201A681040802286
:101A900052011A4310601868484003210140022097
:101AA000116066498A681042FCD08022920113437B
:101AB000802212011A608022614B52004A606361E9
:101AC000604B5968FF2900D85A6080225E4BE1695B
:101AD00012015C4D1A60002907D0606901F0CCFD4D
:101AE000431C5800C0180338FDD2E02255490B684A
:101AF0001A4080235B012B431A60802380229B01C4
:101B00002B4312011A608022414B52004A60E3616C
:101B10004E4B5968FF2900D85A6080224C4B216AED
:101B200012014A4D1A60002907D0606901F0A4FD36
:101B3000431C5800C0180338FDD2E02243490B680B
:101B40001A4080235B012B431A60802380229B0173
:101B50002B4312011A60802380225B004B602C4BC8
:101B6000D20223623B4B5968914200D25A608022D4
:101B7000394B616A1201374D1A60002907D060693C
:101B800001F07AFD431C5800C0180338FDD2E02252
:101B900030490B681A4080235B012B431A60802375
:101BA00080229B012B4312011A608023DB024B60D1
:101BB000184B6362294B5A68FF2A02D880225200D0
:101BC0005A608022264BA1691201244D1A60002917
:101BD00007D0606901F050FD431C5800C01803385D
:101BE000FDD2E0221D490B681A4080235B012B4384
:101BF0001A60802380229B012B4312011A608023EC
:101C00005B004B600E4BA361DAE6C0468C230020DC
:101C1000006CDC021BB70000008000403CB00040BC
:101C200030B00040002F685900800240008C864789
:101C300000C0024030800040001BB7003C800040E4
:101C4000405973075480004054B000406080004009
:101C500060B000406C8000406CB0004048800040A4
:101C600048B00040014B8000C05870478C230020D2
:101C7000F8B5040021481D0017000E0001F0FCFC1F
:101C80000100380001F0F8FC069B29041B031943EE
:101C90002368002B20DB1A4B1A4DE21853425A419D
:101CA00080235B019C461203174B62441A60174B5A
:101CB0001A601700AB689F43FBD1C022231D92011D
:101CC0001A4321232660A06013602368002BFCDAEE
:101CD0000823E1601360F8BD3F2322681340B3423C
:101CE000D9D1A3681B051B0D8342D4D1EE22E36832
:101CF000D20213408B42CED1EDE7C046001BB700A5
:101D00000040FDBF00C0004000E0004000F0004087
:101D10008023024A9B000343D36270470080054042
:101D200010B5140080221B4BD2051A6000281AD06F
:101D30000123194A1843194BDA61194A42401A62C1
:101D4000596298628022134BD2051A601549164ACF
:101D50001160E022D2041A60002C07D18022134BBC
:101D600012061A6010BD0D4BD861EBE763011B1B17
:101D70009A008023121912015B049A4200D30C4A84
:101D80000C4B1A60054B5A608022084BD2051A6032
:101D9000E8E7C04600B00540D3C007B0008005406A
:101DA0002D3FF84FFCFF01000820014000A0054036
:101DB000FFFFFF0038280020AA23064A1B011360FA
:101DC0002F230549D360054B19605368002BFCDABB
:101DD0007047C0460040024000B0FA000060024078
:101DE0002C4B2D4A70B51A602C4A2D4B2D491A6088
:101DF00014008B689C43FBD12B4D2C4EB54208D26E
:101E0000013E761BB60808CD984723000134B34243
:101E1000F9D1FFF7BFFD264A214B1A60214A93688A
:101E2000DB43DB01DD09002BF9D14022214B224CA1
:101E3000224E9A675A671A67DA66B44208D2236854
:101E40002000002B20D00834FEF744FFB442F6D324
:101E50001B4E1C4CC022A168300002F0D3F8A660D3
:101E6000FEF73AFCFEF7EAFEFFF7ECF8164C174EC9
:101E7000B44208D2013E361BB60808CC98472B0066
:101E800001359E42F9D170BD0834FEF715FFB4420A
:101E9000D5D3DDE700E00040BFCDFBFEFE7F3C0078
:101EA00000F0004000C00040E41A0020F41A0020B6
:101EB000FFFFFF0100F00140D41A0020E41A0020C7
:101EC0000000002000ED00E0F41A0020FC1A0020C1
:101ED00000BEFDE7094A03001068002805D0084944
:101EE000C3188B4207D81360704706480449C318CB
:101EF00010608B42F7D901204042F5E730240020E2
:101F000000000420A429002010B5FFF7E1FFC0461F
:101F100010B50C0082B01900002A0AD0064B0192BD
:101F2000009302002300054801F00CFB0120FFF79D
:101F3000CFFF034B1A00F2E7F4F0001004F1001099
:101F400090F700100FB400B5084883B002F0BEF956
:101F5000049B002B07D005A91800019101F012FB8A
:101F6000034802F0B3F90120FFF7B2FF34F100108B
:101F70004CF9001010B50148FFF7E4FF44F10010E0
:101F80009A4200D2885470477047C046F8B5574609
:101F90004E464546DE46E0B599460A9B07009A46FE
:101FA0000D9B8846934615000B9E9B0710D10C9BFA
:101FB0009E420DD29D1B14000E005D4422004B4634
:101FC000013431002020B847A542F7D1B0460B9E1E
:101FD000002E27D0444675195346AA1B013E985D32
:101FE00021004B46B847002EF6D123002C0098461E
:101FF0000D9B9B070FD55B46E51A0C9BAB420AD99C
:102000004646984622004B46310020200135B8470D
:102010000134A845F6D82000F0BCBB46B246A9461C
:10202000A046F8BD2C00E3E7F0B54F464646D6463D
:10203000C0B584B098460EAB1B78129F9946944663
:102040000D9C109B119EBA0725D4002E4BD19C42AB
:1020500000D3BFE001223A4092461F2C00D9B8E0DD
:102060000C9A551E302201E0202C03D001342A5551
:10207000A342F9D85246002A0DD0A6420BD9202CF3
:1020800044D00C9A551E302201E0202C3ED0013461
:102090002A55B442F9D1FA064DD57A053FD4002C21
:1020A00039D10F9B102B00D179E00F9B022B00D16F
:1020B0008AE030230C9A012413704B46002B3FD04A
:1020C0002D230C9A135501340C9B62460093039701
:1020D000434602960194FFF759FF04B0E0BCBA46AC
:1020E000B146A846F0BD012215003D40AA463A423D
:1020F0002FD04A46002A02D10C323A4200D0013E8B
:102100009C42BAD21F2CABD9202E27D92024FA0604
:10211000DAD57A0503D4A3422DD0A6422BD00F9B4B
:10212000102B32D0022B20D0202CCDD030220C9B73
:102130001B191A700134202CC6D04B46002BBFD17E
:102140007B070DD43B07BFD520230C9A13550134D0
:10215000BAE79C429FD21F2C00D881E720249AE73F
:102160002B230C9A13550134AEE7202CACD00C9BDA
:102170001B1901343AE0631E012C92D00F9A102AE9
:102180002AD0022A2FD01C00D0E7BB060ED4202C68
:102190009AD00C9B1A19013478231370C4E7BB063C
:1021A0000DD478230C9A01241370BFE7202C00D1A2
:1021B0008AE758220C9B1B191A700134B4E7582384
:1021C0000C9A01241370B1E70C9A60330124137048
:1021D000ACE7202400265EE7023CBA06E9D40C9A5C
:1021E00012191C00D8E70C9A9246534462221A70C6
:1021F0009AE7C04610B5002800D110BD02F01AF8C9
:10220000FBE7C0460B0010B5002802D049681B68E8
:10221000984710BDF0B5DE4657464E464546E0B5F8
:102220009BB09B46249B89469846259B0B900C921D
:102230004046424619009A4601F0DFFC002800D0D3
:10224000D8E0012240465146774B524201F0D0FC83
:10225000002800D0CEE0012240465146734B524246
:1022600001F0B0FC002800D0C4E00022002340466A
:10227000514601F0A7FC002800D0B9E14246534680
:102280000A9209938023289ADB001A400E92289A1A
:102290001A4201D1062326930A9A099B160013437A
:1022A00000D0C7E0289B002500261B0500D49BE139
:1022B00000230D93269A0D9B9A4200DC9FE1D01AD1
:1022C000431E26938023289ADB001A43002300270D
:1022D00028920D93279B0024BB4200D9DC1B0223CC
:1022E000289A1A400E92289A134203D07B427B41CF
:1022F0005B421C400D9B002B07D00A9809992A00CD
:10230000330001F0FEFB0A900991002200234046B1
:10231000514601F057FC002805D080200006844675
:10232000099961440991289A414B0B9D13400493EC
:10233000269B0A9A0293099B0394009201934946B3
:102340005B4628000C9A00F08BF90400002F62D045
:10235000289B220098061F23C0179843631C9846A9
:1023600049465B466530A8470D9B0025DA179C1847
:10237000DB0F9A465440013F01E0202D13D00AAAFA
:1023800094461F23200063440A2101355E1901F0A1
:1023900073F93031317020000A2101F06DF9260007
:1023A0000400092EE9D805230693002304930A3379
:1023B0000393534605970B9F029312AB009342463B
:1023C0005B46494638000195FFF72EFE0E9B040040
:1023D000002B20D00C9BC51A279BAB421BD91E009B
:1023E00022005B46494620200135B8470134AE4201
:1023F000F6D810E0289B42460493279B4946039356
:10240000269B0B9802935346009201935B460C9ACD
:1024100000F026F9040020001BB0F0BCBB46B24619
:10242000A946A046F0BDC046FFFFEF7FFFFFEFFFCC
:10243000FFF7FFFF734B099F9C467800400D6044F7
:1024400001F0EEFB704A714B01F075FB704A714B65
:1024500001F052FB3B03704A1B0B1A4304000D00B2
:10246000300011006D4B002201F041FB6C4A6D4BB6
:1024700001F061FB02000B002000290001F03CFB91
:1024800001F0E6FB0D9001F0CBFB674A674B0400BF
:102490000D0001F050FB0022654B01F02DFB01F017
:1024A000D7FB644A0600644B2000290001F043FB7F
:1024B000040030000D000F9601F0B2FB5F4A604B44
:1024C00001F039FB02000B002000290001F00FFB96
:1024D00002000B0006000F0001F02DFB320004008B
:1024E0000D003B003000390001F006FB0022109087
:1024F0001191544B2000290001F003FB0022524BA4
:1025000001F0FAFA02000B002000290001F0F9FAAC
:1025100000224E4B01F0F0FA02000B0020002900CF
:1025200001F0EFFA0D008021040032003B00002092
:10253000C90501F0DCFA02000B002000290001F0BF
:10254000DBFA02000B001098119901F0DAFA002270
:10255000314B01F0D1FA3E4B0F9C9C466444002263
:10256000230501F0E8FA05000E0002000B000A98AE
:10257000099901F027FB00280AD00D9B2800013B98
:1025800031000D930022304B01F0BBFA05000E0024
:10259000C6270D992B0063318F42BF4128997F4296
:1025A0000437090500D495E6334300D182E6099C3F
:1025B000284A2100284B0A9801F012FB002808D075
:1025C00000222100254B0A9801F0FCFA002800D0D7
:1025D00070E6269B002B00D17CE60E9B5A1E934191
:1025E000269AD31A269375E6002304270D9371E6E5
:1025F00043460A9380231B065344099342E6002373
:1026000026935FE601FCFFFFFB799F501344D33F05
:10261000B3C8608B288AC63F0000F03F0000F83F37
:1026200061436F63A787D23F71A379094F930A4033
:102630000000E03F1655B5BBB16B0240EF39FAFE22
:10264000422EE63F00002C400000244000001840CD
:10265000FF0300002D431CEBE2361A3F80842E411D
:10266000F0B54E46DE4657464546E0B597B099462A
:10267000209E219F229B8346984607910C923B0007
:1026800032003000390001F0B8FA002800D0A9E18A
:10269000012230003900CA4B524201F093FA00285F
:1026A00000D0E1E0012230003900C64B524201F077
:1026B0009FFA002800D0B7E0002230003900C24B5A
:1026C00001F096FA002800D099E00022300039008D
:1026D000BE4B01F077FA002800D090E000220023E2
:1026E0003000390001F06EFA002800D0B1E000237C
:1026F0000D93249B5B0501D40623984608AB9C46AA
:102700001722002430234146624404E0013413556B
:102710000139202C01D00929F8D888463000390029
:1027200001F096FA4346DA00A94B05009B181A6897
:102730005B680892099301F073FA02000B00300005
:10274000390001F0D4F9089A099B01F0F4F90A90D4
:102750000B9101F0A1FA824601F05EFA02000B0033
:102760000A980B9901F0C3F900229A4B0A900B9139
:1027700001F03EFA002800D1C0E001239C46E2446B
:10278000504601F049FA02000B000898099901F03F
:102790001FFA002802D000239A4601354346002B39
:1027A0006AD008AB17269C4608956644554614E047
:1027B00001235B4243440A2128009A4600F05CFF53
:1027C000013430313719397028000A2100F054FFE4
:1027D000092D00D8D0E0D0460500202CE8D10EAB62
:1027E00098460323249A1340012B00D196E020231E
:1027F000249A01930392239A434602921EE0249B5B
:1028000058460493239B00960197039343460C9AE2
:10281000029307994B46FFF7FDFC17B0F0BCBB468F
:10282000B246A946A046F0BD249B5B070ED4032206
:10283000694B249901920391239902910093584680
:102840004B460C9A0799FFF7A1FBE6E70422634B7E
:10285000EFE73B0032000020002101F048F901239E
:1028600006000F000D9344E7249B0393239B0293E0
:10287000042301935A4BE1E7280001F0D1F902004B
:102880000B003000390001F032F9524B00220600F3
:102890000F0001F097F90EAB984600280AD10022EC
:1028A000300039004B4B01F0A3F9002802D1EB07AF
:1028B00000D50135202C94D008AA9446172328006F
:1028C00063440A2101341E1900F0AEFE30312800A5
:1028D00031700A2100F0A8FE051EEBD10323249AD3
:1028E0001340012B1BD0202C00D180E70D9B002B27
:1028F00035D02D224146631C0A5579E700220A98FB
:102900000B99344B01F05EF9002800D046E753469E
:10291000002B51D101239C46E2443FE72024239B16
:10292000002BE0D00D9B002B03D1249A0C331342D3
:1029300002D0239B013B2393239BA342D3D908AB13
:102940009C46172230236244202C00D14FE7239964
:10295000013413558C42C6D0202CF8D147E7249B74
:102960005B0724D4249A2300120700D440E72022D6
:10297000414601330A553BE75746089D202C00D1BC
:102980002DE7220030214046002F09D00132B154FA
:10299000202A00D123E7D3431B191B18002BF5D1A4
:1029A0000EAB98462E234146541C8B5482E72B22B3
:1029B0004146631C0A551BE7DB0700D4EEE6A9E796
:1029C000FFFFEFFFFFFFEF7F65CDCD4165CDCDC1AF
:1029D00048F300100000E03F50F1001054F10010E7
:1029E00060F10010249B0393239B02930323019324
:1029F000004B23E75CF10010F0B5DE464E4657462B
:102A00004546E0B59FB01C00289B91460993C94AF2
:102A1000C94B8B4608901A60002900D118E20023A8
:102A200020789A46002800D11AE226001D005C4654
:102A30000AE02A006F1C4B46089D2100A8473D0074
:102A400001363078002870D02528F2D110239B461B
:102A5000083B9A46043B9846023B00219C46721C68
:102A6000107816000300203BDBB2102B03D8B34FC5
:102A70009B00FB589F460300303B092B32D90023B3
:102A80000A932A2868D0002398462E283ED00300B7
:102A9000683BDBB2122B1CD8A94A9B00D3589F4637
:102AA000012301321943DBE7634601321943D7E7BB
:102AB000434601321943D3E75B4601321943CFE75E
:102AC000534601321943CBE780235B0070781943EA
:102AD00001360300253BDBB2532BAAD8994A9B0051
:102AE000D3589F4600270300B800C01901364000A4
:102AF000C018337830381A00303A0700092AF3D961
:102B00000A901800002398462E28C0D180237078A0
:102B1000DB0019430300303B721C092B00D8A1E1F4
:102B20002A2800D1B2E11600B1E7A346AA462C003C
:102B3000D14503D801235B424B449A464B4652464B
:102B400059460020089DA84720001FB0F0BCBB4696
:102B5000B246A946A046F0BD099B40CB0A96002E7E
:102B600003DB50780993561C8DE7283801437042E7
:102B70000A9009935078561C85E7782800D1DFE148
:102B8000582800D14CE26F2800D14FE3622801D1D0
:102B900000F030FC10230A009A430B92692801D000
:102BA00000F0A9FC0A230C934B0500D5D0E10B9A49
:102BB000802311009B0019408B461A4200D0A1E2ED
:102BC000802311005B0019408A461A4200D0B6E308
:102BD00013005B0600D5EDE2130009991B0601D432
:102BE00000F076FC08C91BB2D8171A18424092B2FE
:102BF00009919346DA0F1292002B09D180231022FB
:102C00000B99DB000B4091430B91002B00D0E4E2C9
:102C10000B9A6123920600D541230EA91F228C46F0
:102C2000DBB262440A3B5F461395A34655460C9CB3
:102C3000B2460D9316000AE03033DBB2013573550E
:102C4000A74200D2EDE2202D00D1EAE207002100E8
:102C5000380000F011FDCBB20929EDD90D9A944648
:102C60006344DBB2EAE780239B00707819430136A6
:102C70002FE77078682800D1CDE180230136194311
:102C800027E770786C2800D1BFE180235B001943EF
:102C900001361EE7462800D19BE10722099B0491DB
:102CA000073393430A9A19000392424602920CC9D1
:102CB00008980092019309912A004B462100FFF7E2
:102CC000CFFC01360500BCE62A006F1C4B46089D70
:102CD00021002520A84701363D00B2E68B0700D42D
:102CE000ADE1099B2A009A466B1C9846534601CBDE
:102CF00021009A46089F4B46C0B2B8470A9B9C46A3
:102D00006544012B00D886E2089B4746B046260062
:102D10004C4699463A002300013731002020C8472D
:102D2000AF42F7D1A14653463400464609930136D7
:102D300087E6C046F92900103428002068F1001009
:102D4000ACF10010F8F10010099B04CB9B46434600
:102D50000992002B00D1C6E013789C46002B00D1CD
:102D6000BDE34346013B099A0133D0180A9F130083
:102D700001E0834203D05A780133002AF9D1099A3D
:102D80000A979B1A0B9380230A00DB001A400C92CF
:102D9000194204D00B9B434501D943460B930223B0
:102DA0001A000A400D920B4200D187E160460028CC
:102DB00000D168E10C9B002B00D10DE1A844C24674
:102DC000099B57465B1B9846089BB2462A00260083
:102DD0004C46994609E023003100551CC84743463C
:102DE000585D002800D126E12A009742F3D1A14680
:102DF0003D00340056460D9B002B00D043E15B465E
:102E0000013609931DE6099B1A0008CA9246002B59
:102E100048D0212211438B460EA884461F216144CD
:102E2000099500220F27A4460D0002E0202A0CD0AD
:102E30000B003C001C4020003730092C00D807381C
:102E40000132A85419090F2BF0D86446099D32E0CD
:102E5000DC4B2078089300239A46002800D0E4E554
:102E6000002465E6434606000A9F9800C018013218
:102E7000400080191678030030003038303B0928B4
:102E8000F3D93000984616000A9700E6099B0236EF
:102E900004CB9046D2434046D21710408046099357
:102EA0003078F4E510220800904311321043834635
:102EB00000224905B0D55B46069308230593434697
:102EC0000493102303930023029316AB0192009303
:102ED0002A004B4621000898FFF7A6F85346050044
:102EE00001360993ADE513789C46002B00D1F7E23B
:102EF00002235B4237E7202302009A43472A04D18A
:102F000080231B01194302239843452801D1202324
:102F100019430722099B0491073393430A9A190026
:102F20000392424602920CC90898009201930991BB
:102F30002A004B462100FFF76DF90136050080E5B8
:102F400010230C930C230A009A430B924B0503D5D4
:102F500001230B9A9A430B92692800D127E6642833
:102F600000D124E60B9A802311009B0019408B4668
:102F70001A4200D066E1802311005B0019408A46A6
:102F80001A4200D039E213005B0600D53CE1130081
:102F90001B0600D4A6E2099B04CB1204120C934634
:102FA00009935B46002B00D09AE10B9A1033110075
:102FB00099430B91520500D492E100239A460B9B52
:102FC00006930A9B0593434604930C9B03930023AB
:102FD0000CE12023194360E6099B0A9A5B1B984683
:102FE0004B4691461F00B2462600089C2A003B0033
:102FF0003100A04743460135585D0028F6D14A46C6
:103000003400B94656460A92F5E6C0239B00B078D4
:10301000194302365DE5C023B0781943023658E5FE
:103020000C230A009A4314331A43103B0B920C935F
:103030004B058DD496E7A14634005646DBE60A9A46
:10304000012A00D853E26B1E9F18089BB046260049
:103050004C4699462A002300013531002020C847FC
:10306000BD42F7D1A14634004646099B3A0001CB48
:10307000210098467D1C4B46089FC0B2B847434686
:1030800001360993DDE40B9B0A9AA8469A4200D8C0
:10309000B5E694466544ED1A089B4746B0462600BF
:1030A0004C4699463A002300013731002020C8479A
:1030B000AF42F7D1A14634004646A0E60B9A0A99E2
:1030C000531C914200D814E24B199B1A1F00089B15
:1030D000B24626004C4699462A00230001353100AD
:1030E0002020C847BD42F7D10A9BA14601330B936C
:1030F000099B34001B7856469C466046002800D049
:1031000058E67CE60722099B073393430132944635
:103110009C4462465F6809921A68FB1710931193EA
:1031200010981199030053400E930B007B400F93AE
:1031300094460E9A0F9B121A8B410E920F93FB0F1F
:103140006246129300233A439B463DD00B9A61237B
:10315000920600D541230022DBB20EA90A3B8C4621
:1031600092460D9343461F32624413951596554679
:103170000E9E0F9FA24690460C9C14930CE030329A
:10318000D2B2434601355A55BB4500D18AE1202DC4
:1031900000D18AE106000F00220000233000390030
:1031A00000F0A8FAD2B2092AE9D90D9B9C466244E4
:1031B000D2B2E6E7FF23099904C913401A00099126
:1031C00017E5C046891F00100B9A10331100994370
:1031D0000B915205BAD500239A460B9B06930A9B86
:1031E0000593434604930C9B0393129B029353460F
:1031F000019316AB2A00009321004B460898FEF776
:1032000013FF013605001CE4FF22099B02CB11408D
:103210008B460993C5E65346454609930136FFF7A9
:1032200010FC56465C46AA46139DD6E708230C932D
:103230000B910B99642800D084E60B9B5B0500D5AD
:1032400086E6B4E40722099B073393430132944690
:103250009C44624609921A685B6810009B46130002
:103260005A46134307D10B9A1033110099430B911F
:10327000520500D5A1E60B9A6123920600D54123A1
:103280000022DBB20EA90A3B8C4692460D934346C0
:103290001F3262445F461295A34655460400B2466B
:1032A00090460C9E13930DE03032D2B24346013566
:1032B0005A550023BB4200D100E1202D00D100E18E
:1032C00004000F00320000232000390000F012FA41
:1032D000D2B2092AE8D90D9B9C466244D2B2E5E7F6
:1032E0000B9A6123920600D54123DBB20EA90A3B5B
:1032F0001F228C460D93230062445C4612951700F2
:1033000055469B46B2460C9E08E03033DBB2013591
:103310007B55B4420ED3202D0CD004003100200088
:1033200000F0AAF9CBB20929EFD90D9A944663446B
:10333000DBB2ECE756465C46AA46129D3FE6099B87
:103340001A0008CAD91713925A184A409246DA0F3F
:103350001292002B08D1802310220B99DB000B4026
:1033600091430B91002B2BD10B9A6123920600D530
:1033700041230EAA1F279446DBB20A3B0D956744F2
:103380005D460993A3465446B2460C9E08E030338E
:10339000DBB201357B55B4420ED3202D0CD0040096
:1033A0003100200000F068F9CBB20929EFD9099A61
:1033B00094466344DBB2ECE756465C46AB460D9D53
:1033C0000B9B2A0006930A9B210005934346049316
:1033D0000C9B08980393129B013602935B46019362
:1033E00016AB00934B46FEF71FFE139B0500099397
:1033F000FFF727FB02230C931AE7099B04CB9246A5
:103400001293002A08D1802310220B99DB000B4075
:1034100091430B91002B2BD10B9A6123920600D57F
:1034200041230EAA1F279446DBB20A3B0D95674441
:103430005D460993A3465446B2460C9E08E03033DD
:10344000DBB201357B55B4420ED3202D0CD00400E5
:103450003100200000F010F9CBB20929EFD9099A08
:1034600094466344DBB2ECE756465C46AB460D9DA2
:103470000B9B2A0006930A9B210005934346049365
:103480000C9B08980393002302935B46019316ABB1
:1034900000934B46FEF7C8FD129B050009930136C9
:1034A000FFF7CFFAB44200D871E6149B54460E964B
:1034B0000F97AA469846159E139D8EE6A64200D801
:1034C000FBE6139B56469846AA465C46129D76E557
:1034D00008C9D8171A1842400991FFF78AFB002340
:1034E0000B9350E4099B04CB9346099359E52F00B5
:1034F000BBE50B9301E6063B0C939AE60CB410B5C2
:1035000084B006AC08CC0A0000940100044803947F
:10351000FFF772FA04B010BC08BC02B01847C046EE
:10352000811F001000B585B0039101210290009326
:10353000034813004A4202A9FFF75EFA05B000BD36
:10354000052200100FB410B50C4984B006AA08CAB1
:103550000C680392002C0BD00092012208485242C2
:1035600002A9A047012004B010BC08BC04B0184751
:10357000180000F0ABFE0020F5E7C046342800201C
:10358000F521001010B5094A0300146884B0002C1E
:1035900008D0012200910648524203A9A047012009
:1035A00004B010BD00F092FE0020F9E7342800209E
:1035B000F521001001480421014B1847A0100020FC
:1035C000E5350010142310B50100188804331B885A
:1035D000984710BD162310B50100188802331B88C8
:1035E000984710BDF8B54746CE4680B50F1E19D096
:1035F00014239946043304000025012698464B46BF
:103600001888434621681B88984701C4431E984187
:10361000013540420640AF42F1D13000C0BCB9464E
:10362000B046F8BD0126F8E7124A936F9B0815D201
:103630009066D166002905D0FFE7FFE7FFE7516FED
:10364000106F704704B580210906C2175140002849
:1036500000D0C8430BF0B8FC002104BDF0B5146ED7
:10366000556E576F166FFFF7E3FF14665566576781
:103670001667F0BD000000D0114A936F9B0813D26B
:1036800010665166002905D0FFE7FFE7FFE7516F9D
:10369000106F704704B5002801D00020C0430BF024
:1036A00093FC002104BDC046F0B5146E556E576FF3
:1036B000166FFFF7E5FF1466556657671667F0BD8E
:1036C000000000D094464A4A926F9208624601D2A6
:1036D00028E0C046F0B5464E346E756E776F366F93
:1036E00000F020F89446424A1466556657671667FC
:1036F0006246F0BD94463E4A926F9208624601D2FD
:1037000054E0C046F0B53A4E346E756E776F366F42
:1037100000F04CF89446364A1466556657671667AB
:103720006246F0BD002B24DB11D000293EDA00B543
:10373000C943404200D1013100F038F8C94340424A
:1037400000D10131DB43524200D1013300BD002AD8
:10375000EBD1002801D1002905D00020C90FC907ED
:1037600001D1C043410800B50BF00EFC002200233C
:1037700000BD00B500290ADBDB43524200D1013312
:1037800000F014F8C943404200D1013100BDC943E3
:10379000404200D10131DB43524200D1013300F0FD
:1037A00005F8DB43524200D1013300BD002923D18B
:1037B000002B18D1002A0CD0BC460D4F38667A6613
:1037C00000210023FFE7FFE7FFE77A6F386F6746C6
:1037D0007047002801D00748010000B50BF0D4FB6A
:1037E0000022002300BD02000B00002000217047D2
:1037F000000000D0FFFFFFFF002B00D0BFE0130C44
:1038000028D1002AE7D080B4114F39667A66FFE7E5
:10381000FFE730B4040C7B6F396F1B0423433B6616
:103820007A66FFE7FFE7FFE7C04684B27B6F3D6F34
:103830001B0423433B667A66FFE7FFE7C04600238D
:103840002C042D0C7A6F386F00196941B0BC704799
:10385000000000D0F0B594460025140E01D11202EC
:103860000835140F01D112010435940F01D19200D3
:103870000235D40F01D152000135D40B0134254F4C
:103880007C66254C3C660E0C93B2FFE7FFE7FFE732
:103890003C6F6643360C7703BE467343DF0B5B0415
:1038A000C01AB941130C7343DB18C91ACE0866431A
:1038B000360CB64493B273431F0F1B01C01AB941B3
:1038C000130C73431F0B1B05C01AB941860D8F02E1
:1038D0003E436643360C092D24DB520A7243801A9C
:1038E0007703460A6643360C16235B1BDE40DF4037
:1038F000BF1964466643821B7046043506330100D7
:10390000D940A840C01900D30131A24206D20023F9
:10391000F0BD0000000000D0FFFFFFFF121B0130D0
:10392000F3D3F1E709277F1BFE406446A2B272433E
:10393000801A00D20139220C7243130C1204821A2D
:1039400099410B007046043513370100F940A84037
:10395000801900D30131002B02D1A2420AD2F0BD5E
:10396000013000D30131121BFAD2013BF8D1A2423F
:1039700000D2F0BD013000D30131121BF7E7F0B5E2
:103980001C0C00D080E00CB400251C0A04D11B02E2
:10399000160E3343120208351C0B04D11B01160FFF
:1039A0003343120104359C0B04D19B00960F334323
:1039B00092000235DC0B02D192185B4101351C00EC
:1039C000971864410134464F7C66464C3C660E0CA9
:1039D000FFE7FFE7FFE7C0463C6F6643360C77031F
:1039E000BE4697B27743C01B00D20139C01B00D23C
:1039F00001399FB27743C91BC91B170C77437E045B
:103A0000FF0B801BB941CE086643360C0C2D33DB0F
:103A1000B644120B1F053A431B0B97B27743C01BEA
:103A200000D201399FB27743C91B170C77433E047C
:103A30003F0C801BB941860D8F023E436643292708
:103A40007F1BFE400C3D7746AF40BF1930BCA2B291
:103A5000ABB272437343801A9941220C7243130C28
:103A60001204801A994102000B000137001BA94182
:103A7000F9D2781E0021F0BD0C277F1BFE4077464F
:103A80007F0BAF40FF19E0E700245D1C07D0144F07
:103A90007D663966FFE7FFE7FFE7FFE73C6F95B21A
:103AA0009EB265436643401BB141150C1E0C654335
:103AB000664336042F0C3E432D04401BB14199420E
:103AC00004D202000B0020000021F0BD01D1904281
:103AD000F7D3801A994101349942F2D3F6E70000F6
:103AE000000000D0FFFFFFFF48404140484018B4AD
:103AF000134B5B68019308BD18B4114B1B6801930D
:103B000008BD94460F4A926F920805D2624618B4D7
:103B10000B4BDB68019308BD0A4AF0B5146E556E75
:103B2000576F166F6246FFF7F2FF064A1466556636
:103B300057671667F0BD18B4014B9B68019308BD29
:103B4000A81C0020000000D0FFB55040424050406B
:103B500059404B40594000E0FFB5154F4C00640DF3
:103B600003D0BC4204D10C0314D80020090D090570
:103B70005C00640D03D0BC4204D11C030AD80022AF
:103B80001B0D1B0501264B4009D44B4003D58B422E
:103B900000D18242FFBD9942FCD19042FFBD0B4350
:103BA000DB1803431343F5D0C9434918FFBD000098
:103BB000FF07000000B5FFF7CFFF01D0002000BDD8
:103BC000012000BD00B5FFF7C7FF804100BDC04622
:103BD00000B5FFF7C1FF01D9002000BD012000BDE5
:103BE00000B5FFF7B1FF01D9002000BD012000BDE5
:103BF00000B5FFF7A9FF804100BD012040054A0044
:103C0000121804D85A00121801D800207047012059
:103C100070470020704700000021002805D1704740
:103C2000C1174840401AFAD0C90713B5064B1B68A4
:103C300098470CBC441CA2401005120B0349091BF9
:103C400009051943114310BD642800201F0400001A
:103C500010B54C00620D8023D218DB00D21A5B0530
:103C60007E2A10DD9E3A13DACC170903490819435E
:103C70005242D140640001341532202A05DAD04086
:103C80000843604310BD002010BD0846604310BDCE
:103C9000C80FC018013810BD18B4024B5B6A0193FD
:103CA00008BD0000A81C002010B50148FEF74AF925
:103CB00098F30010132370B51D78012D11D035DD58
:103CC0001C48FFF787FC1C4C01008022200000F0FC
:103CD00099F9022D27D01948FFF774FC184B18608A
:103CE00070BD184B144C23606360A360E3602361D4
:103CF0006361A361E36123626362A362E36223639E
:103D00006363A363E36323646364A364E36423657D
:103D10006365A365E36523666366A366E36623675D
:103D20006367A367E367084BA364D4E7024C064BC1
:103D3000A364D0E753440000A81C00204C330000CB
:103D400064280020A93C00104D3D001007B56046D6
:103D500001880A0A0230DF2AFAD1C9B2820804D3E4
:103D6000028840880004104300E00068014A505077
:103D7000039007BDA81C002051434343C9188C463B
:103D8000110C83B24B4310B4040C614392B280B265
:103D9000504362431C041B0C001910BC594113040E
:103DA000120CC01851416144704700004840414026
:103DB00048400E4B5B6818470C4B1B6818470C4A71
:103DC000936F9B0802D2094BDB681847F0B5146E5D
:103DD000556E576F166FFFF7F6FF054A1466556666
:103DE00057671667F0BD014B9B681847682800208D
:103DF000000000D007B548404140484001E0C046BF
:103E000007B54200120E03D0FF2A03D1420218D890
:103E1000C00DC0054A00120E03D0FF2A03D14A028A
:103E20000FD8C90DC9050122414005D4414001D533
:103E3000814207BD884207BD0143491801D0C043F4
:103E4000001807BD00B5FFF7D5FF01D9002000BD60
:103E5000012000BD491A002808D10846704700001B
:103E6000C10FC90700D54042002817D0F44603B45B
:103E70000B4B1B68984706BC81409E3840428031FE
:103E800007D20B0607D04900490AC0051043084372
:103E900060470130F8E7490A8902F5E770470000FA
:103EA0006428002010B50148FEF74CF890F7001088
:103EB000132310B510481C78FFF78CFB0100012C70
:103EC0000AD003DD80220D4800F09CF80C48FFF773
:103ED00079FB0C4B186010BD084C5422200000F0F8
:103EE00091F82300084A80332168002900D122601C
:103EF0000434A342F8D1E9E75346000068280020C3
:103F00004C33000064280020A53E001070B504006A
:103F10000A4E30000BF098F8200004F06DFF050009
:103F200030000BF029F8002D05D0054B2C199C42D0
:103F300001D8280070BD0348FEF704F8D41A002009
:103F400000000420B0F3001070B505000C000B4E0B
:103F500030000BF079F82800210004F013FF050071
:103F600030000BF009F8002D05D0054B2C199C42B0
:103F700001D8280070BD0348FDF7E4FFD41A0020E3
:103F800000000420B0F3001070B505000C000B4ECB
:103F900030000BF059F82800210005F0FFF905006A
:103FA00030000AF0E9FF002D05D0054B2C199C428A
:103FB00001D8280070BD0348FDF7C4FFD41A0020C3
:103FC00000000420B0F3001070B50400054D280077
:103FD0000BF03AF8200004F019FF28000AF0CCFF9B
:103FE00070BDC046D41A002001480421014B184777
:103FF000B0100020E5350010014B1B681847000089
:10400000B0100020014B5B6818470000B010002082
:10401000030010B5080011001B68984710BDC0468A
:10402000F0B546464F46D646C0B5437D80460E00A5
:104030001700002B46D0002A3FDD4B1E9946244B2B
:104040000125002400209A460DE04B461B5D0D3BE8
:104050005A425341325DDBB20A2A0BD02B000134A5
:1040600001359F421ADD002CEFD14346325D1B7DA6
:104070000A2AF3D1002BF1D1A04204DA4346211AD7
:104080001B6830189847434650461B6802219847E2
:10409000013428002B0001359F42E4DC874204DD17
:1040A0004346391A1B6830189847F619013E337891
:1040B0000D3B5A42534142461375E0BCBA46B146E5
:1040C000A846F0BD0368110030009847F5E7C046E8
:1040D00034F40010F0B5C6460C000968060000B5BF
:1040E000802906D04B1C23606418267180BCB8461A
:1040F000F0BD0F4B1D68002D16D0231D98460D4FA7
:1041000002E02D69002D0FD02B68002BF9D03B6801
:10411000002B01D0AB42F4D1280041462268FFF7C2
:104120007FFF2D69002DEFD101230021DBE7C04681
:10413000242400202C240020F0B5DE4657464E46AD
:104140004546E0B585B017001C0006000D00FDF7E0
:1041500045F90023304A12184B41002B58DB2F49F8
:1041600008008A460AF050FF01906B1C03D1300012
:1041700005F020FB0500002C25D1294B9846294B42
:104180001C68002C15D0002F20D1274F02E0246995
:10419000002C0ED02368002BF9D03B68002B01D0F7
:1041A000A342F4D120002A003100C0472469002C2A
:1041B000F0D1019B002B27D105B0F0BCBB46B24625
:1041C000A946A046F0BD194B9846D8E7164B99462C
:1041D00002ABDF1D0A239B4602E02469002CE8D0D5
:1041E0002368002BF9D04B461B68002B01D0A3425B
:1041F000F3D12A0031002000C0475B46012239007C
:1042000020003B70C047E8E750460AF0B5FED3E710
:104210000122074B5242A2E740420F00DC1A002065
:1042200021400010242400202C24002011400010E4
:10423000FFFFFF7FF0B5CE46474680B583B06B46A3
:104240000600DD1D2870FDF7C9F800231A4A121870
:104250004B41002B2BDB1949080088460AF0D4FE9D
:10426000174B81461C68002C14D0164F02E02469BD
:10427000002C0FD02368002BF9D03B68002B01D015
:10428000A342F4D1200001222900FFF7C9FE2469CE
:10429000002CEFD14B46002B05D1300003B0C0BC41
:1042A000B946B046F0BD40460AF066FEF5E7012289
:1042B000054B5242CFE7C04640420F00DC1A0020B7
:1042C000242400202C240020FFFFFF7F70B5040071
:1042D00005F070FA00230100050001222000FFF71D
:1042E0002BFF084B1C68002C06D06368002B05D000
:1042F00098472469002CF8D1280070BD2469002C4F
:10430000F3D1F9E724240020F0B54746D64680B51E
:1043100016000F0083B000282DD11C4B1C4D1A68CD
:104320005B68019200931B4B9A461B4B9846534681
:104330001C68002C03D114E02469002C11D02B68D8
:10434000002B01D0A342F7D1A368002BF4D0310099
:10435000380098470028EFDD03B0C0BCBA46B0462D
:10436000F0BD434600995B6A994209D842460198DC
:10437000926A824202D301204042EDE79942FAD18B
:1043800001200021FDF734F8D1E7C046C8F0001045
:104390002C2400202424002000400540F0B546468F
:1043A000D6464F460138C0B50D00160001283ED84C
:1043B000FDF714F800231F4A12184B41002B32DB83
:1043C0001D49B046080089460AF01EFE8246731C4D
:1043D00003D1280005F0EEF98046184B1C68002C2C
:1043E00014D0174F02E02469002C0FD02368002B53
:1043F000F9D03B68002B01D0A342F4D12000424603
:104400002900FFF70DFE2469002CEFD15346002B45
:1044100005D13000E0BCBA46B146A846F0BD4846DA
:104420000AF0AAFDF5E70122064B5242C8E7012631
:104430007642EEE740420F00DC1A002024240020E0
:104440002C240020FFFFFF7F012040427047C04620
:10445000012040427047C046012040427047C0469C
:104460000300022200209A42404170470A4A136822
:10447000002B05D10CE01A001B691032002B07D06D
:104480009842F8D1002902D1036913600161704795
:104490000029FCD01060FAE724240020F0B5CE46B5
:1044A000474680B5A5B004000D00FCF797FF002338
:1044B0002A4A12184B41002B49DB294E30000AF0E2
:1044C000A3FD00230700039322002B00254803A926
:1044D000FFF728F8039B8046002B14D1224B1C6861
:1044E000002C06D06368002B0BD098472469002C61
:1044F000F8D1002F27D1404625B0C0BCB946B04600
:10450000F0BD2469ECE7184B1D689946002D22D0B8
:10451000164C02E02D69002D11D02B68002BF9D02C
:104520002368002B01D09D42F4D1039B28001A0080
:1045300004A90193FFF774FD2D69002DEDD14B46C1
:1045400003951C68CCE730000AF016FDD3E7012282
:10455000074B5242B1E70395CBE7C04640420F00FC
:10456000DC1A0020D5400010242400202C24002038
:10457000FFFFFF7F0FB400B583B004A901C901910B
:10458000FFF78CFF03B008BC04B0184710B500F06B
:1045900005F800F0DDF9012010BDC0467047C046A7
:1045A0007047C0460022014B1A7070479C290020BA
:1045B0004B790020FF2B0BD18B79002B08D1CB79C5
:1045C000012B05D1082A03D98A78024B09301A70C9
:1045D0007047C0469C2900200120704770B5012912
:1045E00009D115495379107909781B02034300203A
:1045F000994202D070BD0120FCE75378012B08D00E
:10460000022BF7D1002064220021FDF789FB012055
:10461000F0E79478D278050012021443D20502D54F
:10462000620A93401D000548FEF7CCFF7F2103007E
:10463000214028009847C0469C2900205542000090
:10464000012303700048704738F4001048780B7855
:104650008A7800021843120410439622CB7810B5D2
:104660001B060343D200934200D010BD0348FEF75F
:10467000A9FF0021030008009847C04655420000EA
:10468000024B1860024B19607047C046802300201F
:104690008423002010B5024B1878FCF759F810BDA0
:1046A0009E290020114B70B51A68002A1AD0EFF32A
:1046B000108172B610680028FCD0BFF35F8F002213
:1046C0000B48596002701B68BFF35F8F1A6081F35B
:1046D000108800240025074B1878FCF739F82900CA
:1046E000200070BDFA240025A400F4E74028002033
:1046F0009F2900209E29002070B5040000200E0094
:1047000001F002FB002835D0002001F015FB002845
:1047100030D0FCF763FE0023184A12184B41002BDF
:1047200024DB174D28000AF06FFC002822D000205F
:1047300001F0EAFA00280BD10120002103244042B5
:1047400000F0CCFC644228000AF016FC200070BD8A
:10475000002001F0F1FA0028EED021003200002004
:1047600001F0F6FA041EEED1033CECE70122054B02
:104770005242D6E703246442E8E7C04640420F00B5
:104780006C290020FFFFFF7FF8B5DE46574680B555
:1047900005000C00FCF722FE0023364A12184B419C
:1047A000002B5ADB344908008A460AF02DFC002809
:1047B00003D1C0BCBB46B246F8BD002001F0A4FA4C
:1047C00000284ED00026002C43DD2C4B9B4614E0E5
:1047D000A919002001F030FB070001200021404210
:1047E00000F07CFC002001F0EBFAFCF7F7FD234B16
:1047F000F61918605960B4422BDD002001F036FB39
:10480000A71B0200B84200DD3A00002AE0D10120D7
:104810000021404200F062FC002001F0D1FA0020AB
:1048200001F072FA002814D0002001F01FFB0028CC
:10483000E1D1FCF7D3FD5B460F001A685B680021ED
:1048400084460F4812184B419F4202D8D3D1944559
:10485000D1D950460AF090FBABE70122094B5242F6
:10486000A0E700200021054B1860596050460AF06F
:1048700083FB9EE740420F006C290020A01C002013
:1048800020A10700FFFFFF7F10B5244C84B000215A
:1048900020000AF0A1FB00281CD1214B1A68002A35
:1048A00016D0EFF3108172B610680028FCD0BFF369
:1048B0005F8F01241B48596002781B68D2B20470D4
:1048C000BFF35F8F0020186081F31088002A0AD0A0
:1048D00004B010BD01200021404200F0FFFB200089
:1048E0000AF04AFBF4E7FCF7E3FB0400FCF776FD73
:1048F000FA220023920012184B41002B09DB012100
:10490000029100210191084920000091FCF7D4FB9D
:10491000DEE70122054B5242F1E7C0466C29002038
:10492000402800209F290020A5460010FFFFFF7FA0
:10493000054B10B51868002804D0044B00221968F4
:1049400001F044F810BDC0468023002084230020DD
:10495000D02310B51B0684B01C68FCF7A9FBFCF73C
:1049600067FCA04202D0002004B010BD264B1B788B
:1049700001F066FC2548FCF79FF90120FCF770F96F
:10498000FF23234C234920701840FBF707FF2078B2
:104990000121FBF7CBFE0520FBF7E2FE002822D128
:1049A000FCF786FB0400FCF719FDFA2200239200B5
:1049B00012184B41002B22DB0121029100210191B1
:1049C000154920000091FCF777FB08220400002124
:1049D0001248FFF711FB002CC5DB11480121FFF73E
:1049E00045FD0120C0E700220E490520FBF700FF2E
:1049F000FBF780FE01000948FCF78AF9EDE7012288
:104A0000094B5242D8E7C0465C0501106C290020D2
:104A10009E29002089480010A5460010402800204B
:104A2000C010002095460010FFFFFF7F0048704730
:104A3000F0F40010004870479CF4001070B50400BA
:104A400017480378002B21D0002C06D1C12415482B
:104A5000154BA4004380048070BD052C1DD8134B5A
:104A60001048A400E558811C002304E001330A80AB
:104A70000231132B0ED0EA5CDCB2002AF6D1C0233F
:104A80000134E4B264009B001C43E4E7112100F010
:104A900017F8D9E7CA24A400DDE70020DCE7C04608
:104AA00084290020FC2300200904000004F50010E4
:104AB00010B5024800F0D8F810BDC0465C280020B0
:104AC00030B54B1E012900D1A7E0664A11780D11BF
:104AD0002C0030349F2900D9A2E00470012B00D1B2
:104AE000BEE00F21147821400C003034092900DD8C
:104AF00098E04470022B00D1B2E0547825112900CF
:104B000030319F2C00D990E08170032B00D1A7E0B9
:104B10000F2121400C003034092900DD87E0C470EA
:104B2000042B00D19CE094782511290030319F2C72
:104B300000D97FE00171052B00D191E00F212140C8
:104B40000C003034092900DD76E04471062B00D1D9
:104B500086E0D4782511290030319F2C00D96EE0F1
:104B60008171072B00D17BE00F2121400C003034F4
:104B7000092966DCC471082B00D171E01479251174
:104B8000290030319F2C5FD80172092B68D00F218A
:104B900021400C003034092958DC44720A2B5FD0C4
:104BA00054792511290030319F2C52D881720B2B5A
:104BB00056D00F2121400C00303409294BDCC4723F
:104BC0000C2B4DD094792511290030319F2C00D920
:104BD000073101730D2B43D00F2121400C003034DD
:104BE000092901DD37310C0044730E2B38D0D179FF
:104BF0000C11220030329F2900D9073282730F2B0B
:104C00002ED00F220A4011003731092A01DC303240
:104C10001100C173102B23D010300023037030BD5E
:104C200007345AE737310C0063E707316CE7373157
:104C30000C0074E707317DE737310C0085E7073159
:104C40008EE737310C0095E707319DE737310C00CF
:104C5000A3E70731AAE737310C00C4720C2BB1D19E
:104C6000C018DAE75C28002030B5002589B00400C0
:104C70000922002101A80095FFF7BEF909220021B1
:104C800005A80495FFF7B8F94B236A4668461370E8
:104C900004A90D220AF068F91521082220006944B0
:104CA000FFF7B0F909B030BD10B501210520FBF7C1
:104CB0003DFD10BD10B500220021024800F05AF958
:104CC00010BDC046542400208022024B5202DA64F8
:104CD0007047C04600201150F0B5C64600B506002A
:104CE00000F022F90C231B4DFF22AB6705201A4967
:104CF000FBF77EFD40239846184C402200212000FF
:104D0000FFF77AF943460127238321210023144A20
:104D10006770A260136063545F31618441462187EC
:104D2000053963540F4A10496360E260A1620B6069
:104D30006362E2620AF010F980239B052F64EB6442
:104D400090230A4A3000EA50FFF7BEFF80BCB84605
:104D5000F0BDC04600001150E905002034240020B9
:104D600084001050000110508000105010D001003D
:104D70000B785B0602D14B78052B00D070478A7800
:104D8000014B1A60FAE7C04600001150F0B5C64664
:104D900000B54B790C791B0288782343CC787F21AE
:104DA000A4070140C509A20F4F001400324E7A1922
:104DB0005201B218907001206840507000205B05CD
:104DC0005B0DD0701383D4768046CA00012D33D09A
:104DD0002A488446880162448446B444604682601E
:104DE00040461060002933D0254AC90090466246EB
:104DF000414451603F223F339343022C00D15B007A
:104E000020487A1901685201B218D1601E4ACB18A5
:104E1000036051405340802288465201934228D873
:104E20004346A4061C4380237F197F011B06F61905
:104E30001C4373681C6011E0144884468801624476
:104E40008446B4446046826240461060002909D11D
:104E500000236D01761973600D4BF360012080BC57
:104E6000B846F0BD084AC9009046624641445162C6
:104E7000C0E7FDF77FF8D3E734240020840010500A
:104E8000040010503C2800200000105080001050FA
:104E90000001105010B50AF05FF810BD10B57F206A
:104EA0000C0020404000E409110000191A00034BD7
:104EB0004001C01800F05EF8012010BD342400202D
:104EC0007F22130010B50B400A420BD0C909802283
:104ED00058004018064940014018120100210AF00C
:104EE000ABF810BD02220348C909521A8266EEE7E8
:104EF00034240020002011507F22100010B50840FB
:104F00000A4200D110BD0023C909400040180449DD
:104F10004001081800220349C3700AF08DF8F1E738
:104F200034240020FFF7FFFF80220D4B520410B500
:104F30001A600C4B0C491A6010008B689843FBD127
:104F40000A4C9C2200212000FFF756F88022002105
:104F500052010748FFF750F80923636710BDC046A8
:104F600000E0004000F0004000C000400000115090
:104F70000000105070B5837E04000D001600002B59
:104F800017D10023E38201332000A682A376256196
:104F90000AF002F8002804D080219023084A8902F0
:104FA000D15020000AF028F8002805D001232377EB
:104FB00070BD0AF039F8E4E720000AF02DF8F7E7B1
:104FC00000201150024B5878431E9841C0B27047E0
:104FD00054210020024B18784007C00F7047C0468C
:104FE00054210020034B1878FF38431E9841C0B26B
:104FF0007047C046FC100020F8B5CE46474680B545
:105000002C4E050033780120FF2B03D0C0BCB946DD
:10501000B046F8BD532200212748FEF7EDFF274C8C
:105020002000FBF749FE264B1C60264C2000143064
:10503000FBF75EFE200001F0D1FB234B234F1C60E9
:10504000234B9846002B04D03800FFF7F9FA214B88
:105050001860424600243B78002A23D01E4A90461E
:105060001C4A9146A34212D80FD1434698470134B7
:105070003B78E4B2A342F5D228003570FFF72CFE4E
:105080002800FFF711FE0120C0E70020BEE74A46D6
:105090001268630094461B19DB006344002BF4D0B4
:1050A0001B68E3E700F0EEFE3B780020002BADD15B
:1050B000E2E7C046FC100020542100200C21002013
:1050C000A8210020E0100020AC210020952900201C
:1050D00041460010FC1D0020855E0010F0B5DE4644
:1050E00057464E464546E0B58BB001F0AFF8002874
:1050F00000D10FE1C74BC84D9946C84B07AC9B4642
:105100002E687269EFF3108172B61368002BFCD021
:10511000BFF35F8FB1613000210001F0A1F9726926
:10512000B369BFF35F8F0021116083F310880028FB
:1051300000D1EFE06378082BE2D84A469B00D358B1
:105140009F466368002BDBD0A0689847D8E77F2292
:105150002179B24E0A405000CB093618F6183000BB
:1051600001273030C378BB43C370C3780337BB43D8
:10517000C370002A00D1F2E0A94AF37C002A06D0CD
:10518000A84A1278934200D260E19B1ADBB2002B4E
:1051900000D0BFE0A44E62792078A368B047AFE7A3
:1051A0005B4601221B78012113435A4613703323B7
:1051B0005846D25C5E468A43C254C25C0420824395
:1051C000F2540133F25C8A43F254F25C8243F254AB
:1051D000237800209A4600F005FD602223791A40CA
:1051E000602A0DD0402A00D1BFE0DB06DB0E012B88
:1051F00000D136E1022B00D1D4E0002B00D1C3E076
:1052000020780021FFF75CFE80212078FFF758FE10
:1052100076E7824E3378DB0700D471E7834B002BAF
:1052200000D16DE700E000BF6AE77C4E3378DB0712
:1052300000D465E77E4B002B00D161E73078000792
:10524000C00F00E000BF5BE7764B754A984600262A
:1052500027781B78002A00D179E0764A92469E4250
:105260005FD319D1744B38009847434601361B78F9
:10527000F6B2B342F3D2694E532200213000FEF75A
:10528000BBFE1022FF21F01CFEF7B6FE30002022EC
:10529000FF211330FEF7B0FE00F09AFC674B002BA5
:1052A00000D12DE700E000BF2AE75E4B5C4A98463C
:1052B000002627781B78002A1FD05E4A92469E421D
:1052C0003AD321D15C4B38009847434601361B78CE
:1052D000F6B2B342F3D2514E532200213000FEF712
:1052E0008BFE1022FF21F01CFEF786FE30002022EC
:1052F000FF211330FEF780FE07E0380000F000FECB
:1053000043461B78002BE6D0444E00F061FC237925
:10531000B370F5E60BB0F0BCBB46B246A946A0465A
:10532000F0BD52461268730094469B19DB0063443B
:10533000002BB1D05B6896E7524612687300944622
:105340009B19DB006344002BDED05B68BBE73800B1
:1053500000F0D6FD43461B78002B9DD18BE7627988
:105360002078A36800F052FCCAE63548002800D136
:1053700046E700F037FC0121504608AA00E000BFD4
:10538000002800D0BCE63BE7202A00D19EE0002A9E
:1053900000D035E76379092B00D931E7294A9B0012
:1053A000D3589F467023217A0B4200D028E75846F5
:1053B0000F330B405B00CE09C018194F8019C07C19
:1053C000002F06D0174F3F78B84200D2A0E0C01B94
:1053D000C0B2002800D096E0002A00D047E11A4F62
:1053E0000220627990468243012A00D142E142467E
:1053F000002A00D004E75B449E193036F37806AAF1
:105400009B07DB0F023213805046022308A900F0ED
:1054100081FB75E680F50010AC21002054210020AE
:105420004146001095290020F9600010000000009E
:1054300000000000FC1D0020015F001000000000C3
:1054400000000000A4F500100CF600105A00D3185C
:10545000B14ADB001268D318002B00D15AE71E694D
:1054600099E6237A0F2B00D9CAE6AC4A5B44DB7875
:10547000002A05D0AA4A127893425ED39B1ADBB267
:10548000002B00D0BCE6A748A74E00F0ABFB0121E3
:105490005046F36808AA9847002800D030E66022FA
:1054A000160023791E401A4200D0A9E663790A3B10
:1054B000012B00D9A4E600F095FB63790A2B00D1FB
:1054C00020E1504608A900F00DFB19E6237A0F2BC6
:1054D00000D995E6914A5B44DB78002A06D0904AD1
:1054E0001278934200D2E6E09B1ADBB2002B00D088
:1054F00086E68C488C4E00F075FB01215046F3681F
:1055000008AA98473CE70027002A00D168E777E619
:1055100047003818804FC0003F683F18002A00D16C
:105520005EE7002F00D16BE6F86800F05BFB01211D
:105530005046FB6808AA984722E7774A5E00F318AE
:105540001668DB00F618002E00D159E6F0689CE7DB
:10555000A279019273789A4207D07378002B00D019
:1055600046E1019B002B00D0EAE05B46019A5046E1
:1055700008A95A7000F0B6FAC2E5737806AA02329A
:1055800013705046012308A900F0C4FAB8E5E0887A
:10559000030AC0B20F2B00D932E664499A008A5838
:1055A000974608A800F024FB5046A179FFF782FB3C
:1055B0000222337813433370A2E5E388012B00D035
:1055C0001EE60822337893435A46137079E7022087
:1055D000317806AB9A1C8B068908DB0F01400B4320
:1055E00011E7E388012B00D00AE608223378134341
:1055F000EAE74F4B002B00D102E600E000BF021E9D
:1056000000D1FDE5D37891781B020B43504608A9E1
:1056100000F080FAB4E6474B002B00D1F0E500E043
:1056200000BF021E00D1EBE55046137808A900F038
:1056300071FAA5E62189FFF701FA021EF4D1DFE530
:10564000022B00D112E13C4B002B00D1D8E500E049
:1056500000BF0200002A00D1D2E5D3E7FFF7E6F948
:105660001223020008A9504600F054FA88E62D489B
:105670002D4F5AE7E288002A08D142465B449E1922
:105680003036F378012A21D09B072ED5002F00D188
:1056900036E5F86800F0A6FAFB6808AA0121504632
:1056A0009847002000F09EFA34235A46D35CDB076B
:1056B00000D525E505E7184A5E00F3181668DB00FB
:1056C000F618002E00D19BE5F06814E79B07DDD5A6
:1056D0001A4B1878FFF710FC0222F37893434246E6
:1056E000F370F3789343F370D0E7144B1878FFF717
:1056F000E7FB0222F37813430122F370F37813439C
:10570000F370C3E706AB9A1C5046012308A9167034
:1057100000F000FAF4E4C046FC1D002041460010F1
:1057200095290020156000100CF60010CCF5001033
:10573000000000000000000000000000FC1000203D
:10574000581EC0B2FFF776F9002800D158E543781B
:105750000593022B00D053E50121C2790700931174
:1057600052110B400A4012015B0113435A46127852
:105770002F318A4313435A461370C37882781B0231
:105780001343C31809370393039BBB4200D8ACE013
:1057900001227B7800920B2B03D1FB7800933B789E
:1057A000FF187B78042B00D02AE50026039B584A7B
:1057B000DB1B9BB20293574B04931B78B24263D01E
:1057C000B846B34256D800D01AE5534B534F414622
:1057D0005046029A9847082803D9029A824200D379
:1057E0008AE0049B01361B78F6B2B342E9D207E5A2
:1057F0005046FFF74FFBB378454A0093454B0026D0
:1058000098461B78002A0DD0454FB34225D820D1A9
:10581000444B50469847434601361B78F6B2B34294
:10582000F3D206E0504600F06BFB43461B78002B9A
:105830000FD1532200215846FEF7DEFB5B461022B3
:10584000FF21D81CFEF7D8FB2022FF213648FEF7A7
:10585000D3FB5B46009A9A7083E618233A68734339
:1058600094466344002BF4D05B68D2E7FFF7E2F87C
:105870000200EFE62A4B1F6818237343FF18002F1E
:1058800000D1BDE4BB68A2E7029B39001A00504674
:10589000984600F04BFB082800D8B1E4424682420B
:1058A00000D2ADE41D4B9846009B012B28D000226E
:1058B0000AE0BB78D318DBB25B44D978FF2900D06B
:1058C0009EE40132DE70D2B2009B9A42F1D1804652
:1058D000330002003900144800F03CFD049B4744AB
:1058E0001B78B34200D34FE78AE4104B002B00D162
:1058F0003BE600E000BF38E63B0047469846D3E76A
:105900004246054B92689A42D1D1059B0093CEE75F
:1059100041460010952900202D5F00100CF6001064
:10592000FC1D0020015F0010672100200000000026
:10593000F8B557464E46DE4645460C00E0B5160023
:105940001F00002A3CD0702398461E4B00259B4622
:105950001D4B9A461AE05B461B7820009946534639
:10596000997800F0BBFC00281CD021004846FFF7C6
:105970000DFA002816D0A378DA09012A19D00A9A5C
:10598000013513702378E418B54219DA6378052BD2
:1059900008D1E3789B079B0FBB4203D14246A37813
:1059A0001A42D8D00020F0BCBB46B246A946A04659
:1059B000F8BD0B9A013513702378E418B542E5DB86
:1059C0000120F0E7FC10002054210020802310B5B6
:1059D0001B0184B001930E4B02901C680391626915
:1059E000EFF3108372B611680029FCD0BFF35F8F0C
:1059F000A361200001A900F0F9FD6269A369BFF36A
:105A00005F8F0021116083F3108804B010BDC04681
:105A1000AC210020702270B58B780C001A4201D0A6
:105A2000002070BD064B20001D78064B997800F0D1
:105A300055FC0028F4D021002800FFF7A7F9F0E773
:105A4000FC10002054210020074B080019687F2318
:105A500010B50340C0095B0033301818034B181809
:105A600000F0F8FB10BDC046A82100205421002002
:105A7000074B080019687F2310B50340C0095B007D
:105A800033301818034B181800F00CFC10BDC0463A
:105A9000A8210020542100207F2070B508400F4C21
:105AA0004000CD09241864193034E5780020ED0752
:105AB00000D570BD0126E578094835430078E570CA
:105AC000FFF7ECF90028F4D10122E3789343E37067
:105AD000E37803329343E370EBE7C04654210020A0
