:020000041000EA
:1000000000B5324B212058609868022188439860DF
:10001000D860186158612E4B002199600221596106
:100020000121F02299502B49196001219960352056
:1000300000F044F80222904214D00621196600F024
:1000400034F8196E01211966002018661A6600F04E
:100050002CF8196E196E196E052000F02FF8012189
:100060000842F9D1002199601B49196000215960AB
:100070001A491B48016001219960EB211966A021F2
:10008000196600F012F800219960164914480160C1
:100090000121996001BC002800D000471248134993
:1000A000086003C880F30888084703B5996A0420EC
:1000B0000142FBD001200142F8D103BD02B5186610
:1000C0001866FFF7F2FF186E186E02BD00000240BE
:1000D000000000180000070000035F00212200005C
:1000E000F4000018222000A00001001008ED00E03C
:1000F00000000000000000000000000074B24E7A12
:1001000000200420F7010010C3010010C5010010F9
:10011000C1010010C1010010C1010010C101001097
:10012000C1010010C1010010C1010010C701001081
:10013000C1010010C1010010C9010010CB01001065
:10014000CD010010CD010010CD010010CD01001037
:10015000CD010010CD010010CD010010CD01001027
:10016000CD010010CD010010CD010010CD01001017
:10017000CD010010CD010010CD010010CD01001007
:10018000CD010010CD010010CD010010CD010010F7
:10019000CD010010CD010010CD010010CD010010E7
:1001A000CD010010CD010010CD010010CD010010D7
:1001B000CD010010CD010010CD010010CD010010C7
:1001C00000BE00BE00BE00BE00BE00BEEFF3058054
:1001D000103800BEF2EB887118DC001038DC00101B
:1001E0003402001090A31AE700201F49086006C8D7
:1001F00081F3088810471D48006800282FD10DA4FE
:100200000ECC002902D000F012F8F9E71849194A7B
:10021000002000E001C19142FCD1174988471749ED
:1002200088471749884700BEFDE701C901C29A42C5
:10023000FBD3704738DC0010C0000020380E0020CF
:10024000B0E900100000042000000420B0E9001014
:10025000001004200010042000000000704709482E
:1002600002F0ECFF0047000008ED00E0000000D0C5
:10027000380E002024130020591A001031040010F9
:10028000811B00105756000006005250ABB360535C
:10029000A0CC001006005250861C0302C0CC0010F7
:1002A000060052505422A29DCCCC001005005250A2
:1002B000DE65F468B0E90010F8B5C0460448054BA7
:1002C00010B5834203D0044B002B00D0984710BDDB
:1002D000380E0020380E00200000000006480749B4
:1002E000091A8B10C90FC91810B5491003D0044B57
:1002F000002B00D0984710BD380E0020380E00208B
:100300000000000010B5074C2378002B09D1FFF73F
:10031000D5FF054B002B02D0044800E000BF0123AD
:10032000237010BDD81000200000000068C9001024
:10033000054B10B5002B03D00449054800E000BF71
:10034000FFF7CCFF10BDC04600000000DC1000200D
:1003500068C9001010B50B490B4803F0A5FF032135
:10036000042000F0CFF80321052000F0CBF8002294
:100370000121042000F0DEF800220121052000F018
:10038000D9F810BD801A0600400400200F2268230F
:1003900000B585B06A4413700023552100930348CB
:1003A000013303F0ABFF05B000BDC04640040020A0
:1003B000B82010B5400004F0D3F91A4A00230261B6
:1003C0008024012218498361C1664061C3650366C8
:1003D00003670251154CC0678467C4240351043479
:1003E00003510C340151D821040043503C31435097
:1003F00078340C31445044182C3944500431425064
:10040000113C04314254FF3C6C3144500C39593496
:100410004350FF3420394450043142504432FF32BB
:10042000835410BD5503001068C900108D030010DF
:1004300010B50021002005F0F5FB10BD7047C04647
:10044000094B00B51A68002389B0069305930493FD
:10045000039302930193013300210093034805F0B5
:1004600015FA09B000BDC04640110020500F002011
:10047000014B036001207047500F002070B5FFF75B
:1004800097FF01001A4A1031536E826000241960F0
:1004900000250023411CFF3103730C604D600025D3
:1004A000144CD26D8C60CD60203911608E225200C8
:1004B00083508025020000242D06B832046545656E
:1004C00014605560A022012583638350012200231C
:1004D000094C6D4250398262C362046245620A600F
:1004E0004B600123054A88305B420260436070BD67
:1004F000500F002000CA9A3B0000FFFF0100FFFFE1
:100500007047C046094A830094464022634410B5B0
:100510001C68C0006240C024144080225201134372
:100520001C60034B9C466044416010BD04C0014008
:10053000004001400A4B80009C460423604400298F
:1005400001D00C230821002A00D10B00026853407F
:100550000C221A4080235B01184302607047C0469A
:1005600004C00140024B18688007C00F7047C046A6
:1005700000C0064070B5EFF3108C72B60D4D2B68BD
:10058000002BFCD0BFF35F8F0724CB08C618C05CDC
:1005900001230C40A3401C000440034207D1034345
:1005A0003370BFF35F8F2C608CF3108870BD100028
:1005B00001F004FB2C0100D0F8B54746CE46884632
:1005C00080B5EFF3108C72B6214D2C68002CFCD056
:1005D000BFF35F8F9A422CD8D4080727055D061910
:1005E00001241740BC402C421FD007210127894617
:1005F00009E0D408055D06194C4639001440A140B5
:100600000C00294211D001329342F2D20120404223
:10061000BFF35F8F00220E4B1A608CF31088002806
:100620000FDBC0BCB946B046F8BD2C431000347097
:10063000EEE7BFF35F8F00232B608CF3108801205F
:1006400040424346002BECD0089801F0B7FAC04670
:100650002C0100D00021044B044ABFF35F8F02C37A
:100660009342FAD17047C046000100D0800100D00B
:10067000044A1078431CDBB2172B00D910231370E7
:100680007047C046A803002000B5054B83B00100A9
:10069000009318221F230348FFF78EFF03B000BD0D
:1006A00074C900106C11002001238340002904D07C
:1006B000034A1360034A13607047034A1360FBE761
:1006C00080E200E000E100E080E100E0024B103059
:1006D0009B688000C058704700ED00E070B50D00C9
:1006E000EFF3108672B60F4A1368002BFCD0BFF3ED
:1006F0005F8F0D4B10309B6884001B590B4A93424F
:1007000003D09D4201D001F071FA074B9B681D5147
:10071000BFF35F8FBFF35F8F0022024B1A6086F337
:10072000108870BD240100D000ED00E0CD01001064
:10073000F0B5DE4657464E464546E0B50C0083B060
:10074000EFF3108972B6584A1368002BFCD0BFF340
:100750005F8F564B9A68030010339F00D559544A57
:100760009046954232D0A54243D0524EAA1B2F2A22
:100770002CD801228240924651464F4A12681140BD
:10078000019151464D4A1160BFF35F8FEFF305822F
:100790009346002A33D101232A009A4393689C424E
:1007A00008D177E04B005B189B00F3189968A142D1
:1007B0002AD01A00062151560029F3DA019B002B9A
:1007C00019D052463E4B1A603B4B1A60374B9B6820
:1007D000DD51BFF35F8FBFF35F8F0022324B1A6092
:1007E00089F3108803B0F0BCBB46B246A946A046C8
:1007F000F0BD1500EAE75246304B1A60E6E7934237
:10080000C9D001F0F3F9C6E706215956002921DBCA
:100810004A005018800034188046A0689860E0793B
:10082000D871062020569871002824DBA488F01A7D
:100830006405241544440019E0240005400D2402F9
:100840002043988052181F4B9200B6181A781970DE
:10085000B271B3E7594600290FD1FF3191711A499E
:10086000918018490A789A71184A9B1B5B415A4338
:10087000120D0A70A2E71648E3E7164A1649D21A83
:10088000083A5002400D01439980144952080A4326
:10089000DA8093E70621515613000029B8DA5A4648
:1008A000002AEAD14546DCE7240100D000ED00E053
:1008B000CD010010AC03002000E100E080E100E089
:1008C00080E200E01F13002001BDFFFFAAAA000084
:1008D00001BD0000E603002000F0FFFF00F8FFFF6D
:1008E00070B5EFF3058101240443EFF3108C72B669
:1008F000214A1368002BFCD0BFF35F8F1F4B05000C
:100900001F4AED1A6D416A43120D1E4D8900AE68F3
:1009100052B27658A6421CD00621595691421CD09C
:1009200012215956914222D01E215956914220D06F
:100930002A2159560324914210D0134B19781A706A
:100940008171BFF35F8F00220B4B1A608CF310880C
:1009500070BDAB680D4C5C50EFE7002461000919D5
:1009600089005B18FF21997109499980E5E7012405
:10097000F4E70224F2E7C046240100D0AC030020D3
:10098000AAAA000000ED00E01F130020CD01001016
:1009900001BDFFFF054B064A1360064A1360536012
:1009A0009360D3601361536193617047808080804E
:1009B00000E400E004E400E070B504000E0015005F
:1009C000FFF756FE0100200000F006F8A680E58043
:1009D000BFF35F8F70BDC046024B9C4661448900E7
:1009E000016070474000003410B50400FFF740FE7E
:1009F00001002000FFF7F0FFFF232371BFF35F8F9B
:100A000010BDC04610B50400FFF732FE0100200003
:100A1000FFF7E2FFFF23A380BFF35F8F10BDC04647
:100A200010B504000120FFF72FFE044B9C466044E4
:100A300080002060BFF35F8F10BDC04640000034CF
:100A400083680B4810B58446614462440901120171
:100A50009A18591854684B6801209C4201D802D05A
:100A60000020C0B210BD12680B689A42F9D8F7E7AF
:100A7000FFFFFF0F0A4B1968EFF3108072B60A6888
:100A8000002AFCD0BFF35F8F1B68BFF35F8F00228B
:100A90001A6080F3108840BF002000217047C046D4
:100AA00008130020F8B557464E464546DE46E0B5E9
:100AB00099460CAB1C780DAB1B78060090469A4605
:100AC0000768002C11D1BC7B002C42D065003B682C
:100AD0002D19033D59194B78BB73002B00D1FB73C3
:100AE00000238B704B700B7004E065003B682D1980
:100AF000033D5919B2682A4B94464246E3181B013C
:100B000063441A604A465A600A9A9A600B9ADA60FD
:100B100000238B704B700B707B7B9B46002B2BD084
:100B200022005946B8687B6898473A68002816D072
:100B30005B4658465B005B445519033BA870D118CF
:100B4000D35C002B00D06B705B460C707B73A345AD
:100B500013D0F0BCBB46B246A946A046F8BD5B46E2
:100B60005B005B44033BD3189C705119525D002A13
:100B700000D05A705B460B707C7342464B46307D0A
:100B800000F02EFB051E06D05346002B03D121009A
:100B9000306800F049FD0E9B002BDAD01D70D8E7BD
:100BA000FFFFFF0FF0B5DE4657464E464546002391
:100BB000E0B58BB00893674B8200D45800239B4666
:100BC000099000F093FA626806000F00EFF31085B9
:100BD00072B61368002BFCD0BFF35F8F23689C466E
:100BE0005B7B9946002B00D169E0A2685A4B904686
:100BF0004B441B01984443461A685B681000190077
:100C0000801BB941002900DC63E0099800F0E8FA94
:100C100000230022984600230692079300239A4659
:100C20006368BFF35F8F5A461A6085F31088534696
:100C3000002B08D10028C4D10BB0F0BCBB46B24693
:100C4000A946A046F0BD089B414618024B461843F2
:100C5000D047626806000F00EFF3108572B6136884
:100C6000002BFCD0BFF35F8F002F50DB33003B43E2
:100C700002D02369002B61D12368D97B002907D0DA
:100C80004A00521819688C4649466244033A51702A
:100C90009A7B002A01D14A469A734A46DA734B4638
:100CA000E168013BCA5C0132CA545B462361636858
:100CB000BFF35F8F5A461A6085F3108881E70023DF
:100CC00000229846002306920793002300209A46AC
:100CD000A6E7002902D1002800D096E7002160464F
:100CE00000F020FC43461A685B680692079343466F
:100CF0009B689A464346DB689846E3684B44013B51
:100D00001B7808931B0203432361002088E72369B3
:100D1000002BB1D0069A079B921BBB41002B15DB21
:100D2000594604910121039149460291414601919E
:100D3000514620000091FFF7B5FEB6E700F0D6F966
:100D400032003B0012184B41002BE9DA0122034B21
:100D50005242E5E7F0110020FFFFFF0FFFFFFF7F8A
:100D600010B5144C6368002B04D00A211248FFF719
:100D700033FE10BD2300114A1021206800F0ECFA68
:100D8000032000F0A7F9032000F094FA03200C4997
:100D900000F0E0F9FFF76CFC0A4B9C460323237537
:100DA000D0231B061B6860446375074B800060609E
:100DB000DC60DAE7F403002008130020410A001089
:100DC000A50B001040000034F0110020F0B54E4695
:100DD0004546DE465746E0B585B0019310AB1B781B
:100DE0000600039300239946984600927268EFF339
:100DF000108B72B61368002BFCD0BFF35F8F356881
:100E0000AC7B002C3DD067002B683F19033FDB19FA
:100E10005A78AA73002A00D1EA73B168474A8C460F
:100E200000980199A21812016244106051600E9955
:100E300091600F99D16042469A705A701A706B7B1C
:100E40009A46002B67D022001900A8686B68984763
:100E50002A68002852D0534650465B005344D719A5
:100E6000033BB870D118D35C002B00D07B70534685
:100E70000C706B7354454FD0F3681B19013B187805
:100E800000E000207368BFF35F8F42461A608BF367
:100E90001088002C4FD04B46002B08D10002204375
:100EA00005B0F0BCBB46B246A946A046F0BD039BC8
:100EB000002B3ED00E9B00200F99984703000400A2
:100EC0000D000B4335D000290ADA009A019B121B52
:100ED000AB4100920193002B0ADB039B994685E707
:100EE00000F004F924184D4100940195002DF4DA26
:100EF0000123134C5B4200930194EEE753465B00E1
:100F00005344033BD3189C70D119D25D002A00D002
:100F10005A7053460B706C73307D009A019B00F041
:100F20005FF981460028A7D02100306800F07CFBE3
:100F3000A2E70020B4E701204042B1E7FFFFFF0F26
:100F4000FFFFFF7FF0B5EFF30583CE46474680B540
:100F500005000C0085B0002B12D02C4A0020536AEB
:100F60009C4203D8926A0130AA4204D305B0C0BCA7
:100F7000B946B046F0BDE01A421E9041C0B2F5E756
:100F8000234E02930193234B0200009330000B0089
:100F9000FFF71CFF031EE0DD20BF7168EFF3108731
:100FA00072B60A68002AFCD0BFF35F8FDAB29446AB
:100FB0003068427B62451DD0FF221A4051008946AD
:100FC000016891448846494641440339897800299B
:100FD00013D0F1681B0A88464244013A1278DBB20A
:100FE0009A420FD07368BFF35F8F00221A6087F3B5
:100FF0001088B2E7FF221A40EBE732699342F1D141
:101000003161EFE7614600F00FFBEBE70040054080
:10101000F4030020750A0010F0B5EFF30582D64600
:101020004F4646461000C0B51038EFF3108872B630
:10103000214C2368002BFCD0BFF35F8F01231900E4
:1010400081401E4D1F006963AA461D4D29601D4D3C
:101050002E78AC463500C5402F402B4209D1BFF356
:101060005F8F276088F31088E0BCBA46B146A84677
:10107000F0BD5346144D5F6A83005D59AF420ED3F5
:10108000124A8E439B5862461670BFF35F8F002250
:10109000226088F31088002BE6D09847E4E70C4BD9
:1010A00092009C46624413681360BFF35F8F002375
:1010B000236088F31088D7E7280100D0004005405E
:1010C0003C700540211300200C1300205C1100200F
:1010D000D03F054010B50100024A0348FFF74AFA25
:1010E00010BDC04698C900101D130020034B596A5B
:1010F0000A00986A596A8A42FAD17047004005404E
:1011000070B504000D00124A536A1900966A536ABA
:101110008B42FAD13000190024184D41AB4211D84E
:101120000ED02B000A494A6A9A42FCD307D1084ADA
:1011300002E0516A994202D1916AA142F9D370BD8D
:10114000A642EED9012301246442E5175B42E9E798
:101150000040054070B504000D00EFF3108672B634
:101160001A4A1368002BFCD0BFF35F8F002D1BD0F1
:101170002000FFF7ABFA164981420AD02000FFF7A2
:10118000ADFA01212000FFF78FFA0123A340114A95
:101190001360114BA400E550BFF35F8F00220B4B8F
:1011A0001A6086F3108870BD0B4BA200D550012247
:1011B000A2400A4920000B7893430B700449FFF7C3
:1011C000B7FA00212000FFF76FFAE5E7280100D009
:1011D00019100010386005405C1100202113002018
:1011E000F0B54F46D6464646C0B507002C4C616A5E
:1011F0000D00A66A616AA942FAD18B4208D805D0CF
:101200000120E0BCBA46B146A846F0BDB242F7D9CB
:10121000EFF3108A72B6234801680029FCD0BFF3AF
:101220005F8F0125BD4020491D4C884609788946BD
:101230002943C9B28C46414660460870391D1B4897
:10124000890065630A51B9000B50216A00202942C8
:1012500019D0616A0800A66A616A8142FAD18B429C
:1012600019D801D1B24216D8CC4516D00C4B1F204C
:101270001D625D6301230740BB400D4A1E381360A9
:1012800043464A461A70BFF35F8F0022054B1A602F
:101290008AF31088B5E70020F5E70120F3E7C046A0
:1012A00000400540280100D0211300200C1300202D
:1012B00080E200E0EFF3108C72B60A490B68002B55
:1012C000FCD0BFF35F8F01238340074A07481362B6
:1012D00002789A430270BFF35F8F00230B608CF398
:1012E00010887047280100D00040054021130020DD
:1012F00070B5050014001600002915D00C00002A56
:1013000012D080686B689847296800280ED0730057
:101310009B196200033B1219CB18033A9C70881882
:101320008A5C002A15D10670200070BD63001B196D
:101330007200033B9219CB18033A9E7088188A5C9E
:10134000002A02D104703400EEE75A7004703400B1
:10135000EAE75A700670E7E730B583600023CCB245
:1013600043730133047342608373C4730D000068D8
:10137000012C06D9421C0133DBB2137003329C42AC
:10138000F9D1FF2129404B00591800234018033898
:10139000437030BDF8B5CE46474606000C0080B518
:1013A000002907D04D0003686D18033D5A1957787E
:1013B000002F04D12000C0BCB946B046F8BD79006A
:1013C000C919033988464344597889460021597020
:1013D000517073683A00210080689847336800288C
:1013E00014D042469A18947059195B5D002B00D0B6
:1013F00053700F70270049463000FFF7CBFF3900CC
:1014000002003000FFF774FF0400D3E74246414674
:101410005D19AF709A185B5C002B00D06B70147074
:10142000E9E7C046F0B557464546DE464E46E0B5CC
:101430000D006B0001685B19DF1E0400C85D83B0FE
:101440000192CA19002850D043001B18033BCB1847
:101450005E78B446002E1AD1019E002E42D0E67B63
:10146000002E04D073009B19CB18033B5D70A37B47
:10147000002B00D1A573E57300282FD100235370F2
:1014800003B0F0BCBB46B246A946A046F0BD720010
:101490006244033A89184A78904600224A7091467D
:1014A0005A70010032002000FFF722FF43468246B7
:1014B000002B07D05B0021684344033BCB185A78CC
:1014C000002A16D1424651462000FFF711FF21683D
:1014D000019BCA19002BC2D10028CFD043001B1892
:1014E000033BCB1800219970C8E7019B002BB6D1B4
:1014F000C4E75000801803380918487883464846E6
:101500004870587041462000FFF7F2FE5946804669
:101510002000FFF73FFF414602002000FFF7E8FEF2
:101520008046CFE7F0B557464546DE464E46E0B525
:1015300083B00191457B04006B0000685B19DF1EDE
:10154000C15DC219002952D04B005B18033BC31880
:101550005E78B446002E1CD1019E002E44D0E67B5E
:10156000002E04D073009B19C318033B5D70A37B4E
:10157000002B00D1A573E573002931D10023280089
:101580005370617303B0F0BCBB46B246A946A04697
:10159000F0BD72006244033A8018427890460022FF
:1015A000427091465A7020003200FFF7A1FE434678
:1015B0008246002B07D05B0021684344033BCB18D5
:1015C0005A78002A17D1424651462000FFF790FE74
:1015D000019B01002068C219002BC0D10029CDD089
:1015E0004B005B18033BC31800209870C6E7019BB3
:1015F000002BB4D1C2E7500080180338091848788E
:10160000834648464870587041462000FFF770FEF8
:10161000594680462000FFF7BDFE414602002000EB
:10162000FFF766FE8046CEE770B5040000292CD097
:10163000437B8B422ED00568480040180338281899
:101640008278002A21D053009B18033BEA5CEE18F5
:101650008A4202D11BE0002A08D053009B18033BAA
:10166000EB185A788A42F6D142785A700023012248
:10167000837043702000FFF7D5FE617B02002000DD
:10168000FFF736FE6073012000E0002070BD437854
:101690003370EBE701221900FFF7C4FE60730120ED
:1016A000F4E7C04630B50C2083B000F0B9F9FEF77E
:1016B00059FF00280ED0994B994A1A605A609A60D7
:1016C000DA601A615A619A61DA611A62954A5A625D
:1016D00003B030BD944CA06700F0AAF90122934BEF
:1016E0001A60636C012BFCD10322914B1A608E4A65
:1016F000936B012BFCD1013301218E4A8E4800935C
:10170000043300F03DF905238C4A009301218C48F5
:1017100000F036F98B4B5A68FF2A02D8802252001B
:101720005A6080227D4C824B21691201854D1A60DE
:10173000002907D0606901F0DBFD431C5800C01888
:101740000338FDD2E0217F4B02201A68114080222D
:1017500052012A4311601968484003210140116079
:1017600004219A681142FCD08022802192012A43F0
:1017700009011160802252005A60734B2361734B40
:101780005968FF2900D85A600321684A6F4B1160DD
:1017900002399A681142FCD0E0201A681040802279
:1017A00052011A431060186848400321014002208A
:1017B000116066498A681042FCD08022920113436E
:1017C000802212011A608022614B52004A606361DC
:1017D000604B5968FF2900D85A6080225E4BE1694E
:1017E00012015C4D1A60002907D0606901F080FD8C
:1017F000431C5800C0180338FDD2E02255490B683D
:101800001A4080235B012B431A60802380229B01B6
:101810002B4312011A608022414B52004A60E3615F
:101820004E4B5968FF2900D85A6080224C4B216AE0
:1018300012014A4D1A60002907D0606901F058FD75
:10184000431C5800C0180338FDD2E02243490B68FE
:101850001A4080235B012B431A60802380229B0166
:101860002B4312011A60802380225B004B602C4BBB
:10187000D20223623B4B5968914200D25A608022C7
:10188000394B616A1201374D1A60002907D060692F
:1018900001F02EFD431C5800C0180338FDD2E02291
:1018A00030490B681A4080235B012B431A60802368
:1018B00080229B012B4312011A608023DB024B60C4
:1018C000184B6362294B5A68FF2A02D880225200C3
:1018D0005A608022264BA1691201244D1A6000290A
:1018E00007D0606901F004FD431C5800C01803389C
:1018F000FDD2E0221D490B681A4080235B012B4377
:101900001A60802380229B012B4312011A608023DE
:101910005B004B600E4BA361DAE6C04670110020FD
:10192000006CDC021BB70000008000403CB00040AF
:1019300030B00040002F685900800240008C86477C
:1019400000C0024030800040001BB7003C800040D7
:10195000405973075480004054B0004060800040FC
:1019600060B000406C8000406CB000404880004097
:1019700048B00040014B8000C058704770110020F3
:10198000F8B5040021481D0017000E0001F0B0FC5E
:101990000100380001F0ACFC069B29041B0319432D
:1019A0002368002B20DB1A4B1A4DE21853425A4190
:1019B00080235B019C461203174B62441A60174B4D
:1019C0001A601700AB689F43FBD1C022231D920110
:1019D0001A4321232660A06013602368002BFCDAE1
:1019E0000823E1601360F8BD3F2322681340B3422F
:1019F000D9D1A3681B051B0D8342D4D1EE22E36825
:101A0000D20213408B42CED1EDE7C046001BB70097
:101A10000040FDBF00C0004000E0004000F000407A
:101A20008023024A9B000343D36270470080054035
:101A3000AA23064A1B0113602F230549D360054BD7
:101A400019605368002BFCDA7047C0460040024022
:101A500000B0FA00006002402C4B2D4A70B51A60AD
:101A60002C4A2D4B2D491A6014008B689C43FBD1E6
:101A70002B4D2C4EB54208D2013E761BB60808CD40
:101A8000984723000134B342F9D1FFF70BFE264AF1
:101A9000214B1A60214A9368DB43DB01DD09002BEF
:101AA000F9D14022214B224C224E9A675A671A677D
:101AB000DA66B44208D223682000002B20D0083414
:101AC000FEF7A0FFB442F6D31B4E1C4CC022A16807
:101AD000300002F0D3F8A660FEF7BCFDFEF75AFF17
:101AE000FFF73EF9164C174EB44208D2013E361BA2
:101AF000B60808CC98472B0001359E42F9D170BD3D
:101B00000834FEF771FFB442D5D3DDE700E00040B2
:101B1000BFCDFBFEFE7F3C0000F0004000C0004057
:101B2000240E0020340E0020FFFFFF0100F00140D2
:101B3000140E0020240E00200000002000ED00E024
:101B4000340E0020380E002000BEFDE7094A0300D5
:101B50001068002805D00849C3188B4207D81360C5
:101B6000704706480449C31810608B42F7D901201A
:101B70004042F5E7E8110020000004202413002073
:101B800010B5FFF7E1FFC04610B50C0082B0190098
:101B9000002A0AD0064B0192009302002300054858
:101BA00001F00CFB0120FFF7CFFF034B1A00F2E717
:101BB000BCC90010CCC900106CCE00100FB400B529
:101BC000084883B002F0BEF9049B002B07D005A99A
:101BD0001800019101F012FB034802F0B3F9012053
:101BE000FFF7B2FFFCC9001028D0001010B5014863
:101BF000FFF7E4FF0CCA00109A4200D288547047E5
:101C00007047C046F8B557464E464546DE46E0B5F5
:101C100099460A9B07009A460D9B884693461500F5
:101C20000B9E9B0710D10C9B9E420DD29D1B140056
:101C30000E005D4422004B46013431002020B8479D
:101C4000A542F7D1B0460B9E002E27D04446751909
:101C50005346AA1B013E985D21004B46B847002E13
:101C6000F6D123002C0098460D9B9B070FD55B46B1
:101C7000E51A0C9BAB420AD94646984622004B46D1
:101C8000310020200135B8470134A845F6D820009E
:101C9000F0BCBB46B246A946A046F8BD2C00E3E71F
:101CA000F0B54F464646D646C0B584B098460EAB12
:101CB0001B78129F994694460D9C109B119EBA0763
:101CC00025D4002E4BD19C4200D3BFE001223A40E4
:101CD00092461F2C00D9B8E00C9A551E302201E024
:101CE000202C03D001342A55A342F9D85246002AA9
:101CF0000DD0A6420BD9202C44D00C9A551E302270
:101D000001E0202C3ED001342A55B442F9D1FA0624
:101D10004DD57A053FD4002C39D10F9B102B00D123
:101D200079E00F9B022B00D18AE030230C9A01242A
:101D300013704B46002B3FD02D230C9A13550134C2
:101D40000C9B624600930397434602960194FFF76B
:101D500059FF04B0E0BCBA46B146A846F0BD012226
:101D600015003D40AA463A422FD04A46002A02D1E9
:101D70000C323A4200D0013E9C42BAD21F2CABD961
:101D8000202E27D92024FA06DAD57A0503D4A342D7
:101D90002DD0A6422BD00F9B102B32D0022B20D05F
:101DA000202CCDD030220C9B1B191A700134202C12
:101DB000C6D04B46002BBFD17B070DD43B07BFD508
:101DC00020230C9A13550134BAE79C429FD21F2C52
:101DD00000D881E720249AE72B230C9A135501346D
:101DE000AEE7202CACD00C9B1B1901343AE0631EEB
:101DF000012C92D00F9A102A2AD0022A2FD01C0030
:101E0000D0E7BB060ED4202C9AD00C9B1A190134B3
:101E100078231370C4E7BB060DD478230C9A0124F1
:101E20001370BFE7202C00D18AE758220C9B1B19A6
:101E30001A700134B4E758230C9A01241370B1E7E7
:101E40000C9A603301241370ACE7202400265EE76F
:101E5000023CBA06E9D40C9A12191C00D8E70C9A75
:101E60009246534462221A709AE7C04610B5002881
:101E700000D110BD02F01AF8FBE7C0460B0010B508
:101E8000002802D049681B68984710BDF0B5DE46AF
:101E900057464E464546E0B59BB09B46249B894637
:101EA0009846259B0B900C924046424619009A4654
:101EB00001F0DFFC002800D0D8E001224046514666
:101EC000774B524201F0D0FC002800D0CEE0012236
:101ED00040465146734B524201F0B0FC002800D0FE
:101EE000C4E0002200234046514601F0A7FC002830
:101EF00000D0B9E1424653460A9209938023289ABA
:101F0000DB001A400E92289A1A4201D1062326932A
:101F10000A9A099B1600134300D0C7E0289B0025AE
:101F200000261B0500D49BE100230D93269A0D9BF0
:101F30009A4200DC9FE1D01A431E26938023289A00
:101F4000DB001A430023002728920D93279B0024CF
:101F5000BB4200D9DC1B0223289A1A400E92289A11
:101F6000134203D07B427B415B421C400D9B002B04
:101F700007D00A9809992A00330001F0FEFB0A9065
:101F80000991002200234046514601F057FC0028E9
:101F900005D0802000068446099961440991289A59
:101FA000414B0B9D13400493269B0A9A0293099B75
:101FB00003940092019349465B4628000C9A00F076
:101FC0008BF90400002F62D0289B220098061F2363
:101FD000C0179843631C984649465B466530A8473E
:101FE0000D9B0025DA179C18DB0F9A465440013FE1
:101FF00001E0202D13D00AAA94461F232000634439
:102000000A2101355E1901F073F930313170200079
:102010000A2101F06DF926000400092EE9D80523F4
:102020000693002304930A330393534605970B9FAB
:10203000029312AB009342465B4649463800019535
:10204000FFF72EFE0E9B0400002B20D00C9BC51A20
:10205000279BAB421BD91E0022005B46494620202D
:102060000135B8470134AE42F6D810E0289B42460D
:102070000493279B49460393269B0B980293534650
:10208000009201935B460C9A00F026F904002000B0
:102090001BB0F0BCBB46B246A946A046F0BDC04648
:1020A000FFFFEF7FFFFFEFFFFFF7FFFF734B099F7E
:1020B0009C467800400D604401F0EEFB704A714B85
:1020C00001F075FB704A714B01F052FB3B03704A03
:1020D0001B0B1A4304000D00300011006D4B002251
:1020E00001F041FB6C4A6D4B01F061FB02000B00FB
:1020F0002000290001F03CFB01F0E6FB0D9001F00F
:10210000CBFB674A674B04000D0001F050FB002237
:10211000654B01F02DFB01F0D7FB644A0600644BD0
:102120002000290001F043FB040030000D000F9651
:1021300001F0B2FB5F4A604B01F039FB02000B007B
:102140002000290001F00FFB02000B0006000F0029
:1021500001F02DFB320004000D003B00300039007F
:1021600001F006FB002210901191544B2000290031
:1021700001F003FB0022524B01F0FAFA02000B00BF
:102180002000290001F0F9FA00224E4B01F0F0FA8C
:1021900002000B002000290001F0EFFA0D00802161
:1021A000040032003B000020C90501F0DCFA020007
:1021B0000B002000290001F0DBFA02000B00109850
:1021C000119901F0DAFA0022314B01F0D1FA3E4BBD
:1021D0000F9C9C4664440022230501F0E8FA0500A8
:1021E0000E0002000B000A98099901F027FB002855
:1021F0000AD00D9B2800013B31000D930022304B8B
:1022000001F0BBFA05000E00C6270D992B006331C3
:102210008F42BF4128997F420437090500D495E6D3
:10222000334300D182E6099C284A2100284B0A98B2
:1022300001F012FB002808D000222100254B0A984B
:1022400001F0FCFA002800D070E6269B002B00D19C
:102250007CE60E9B5A1E9341269AD31A269375E666
:10226000002304270D9371E643460A9380231B063F
:102270005344099342E6002326935FE601FCFFFFE7
:10228000FB799F501344D33FB3C8608B288AC63F65
:102290000000F03F0000F83F61436F63A787D23F23
:1022A00071A379094F930A400000E03F1655B5BB72
:1022B000B16B0240EF39FAFE422EE63F00002C409F
:1022C0000000244000001840FF0300002D431CEBD9
:1022D000E2361A3F80842E41F0B54E46DE46574620
:1022E0004546E0B597B09946209E219F229B8346A4
:1022F000984607910C923B0032003000390001F003
:10230000B8FA002800D0A9E1012230003900CA4BF8
:10231000524201F093FA002800D0E1E0012230009F
:102320003900C64B524201F09FFA002800D0B7E0B6
:10233000002230003900C24B01F096FA002800D08C
:1023400099E0002230003900BE4B01F077FA0028F6
:1023500000D090E0002200233000390001F06EFA36
:10236000002800D0B1E000230D93249B5B0501D42D
:102370000623984608AB9C4617220024302341468A
:10238000624404E0013413550139202C01D009299D
:10239000F8D888463000390001F096FA4346DA0052
:1023A000A94B05009B181A685B680892099301F015
:1023B00073FA02000B003000390001F0D4F9089ADA
:1023C000099B01F0F4F90A900B9101F0A1FA824601
:1023D00001F05EFA02000B000A980B9901F0C3F9B4
:1023E00000229A4B0A900B9101F03EFA002800D18E
:1023F000C0E001239C46E244504601F049FA020045
:102400000B000898099901F01FFA002802D0002358
:102410009A4601354346002B6AD008AB17269C46E6
:1024200008956644554614E001235B4243440A2163
:1024300028009A4600F05CFF0134303137193970BA
:1024400028000A2100F054FF092D00D8D0E0D04622
:102450000500202CE8D10EAB98460323249A1340A4
:10246000012B00D196E02023249A01930392239A12
:10247000434602921EE0249B58460493239B0096F9
:102480000197039343460C9A029307994B46FFF733
:10249000FDFC17B0F0BCBB46B246A946A046F0BD55
:1024A000249B5B070ED40322694B2499019203916C
:1024B00023990291009358464B460C9A0799FFF7CF
:1024C000A1FBE6E70422634BEFE73B00320000206C
:1024D000002101F048F9012306000F000D9344E7A5
:1024E000249B0393239B0293042301935A4BE1E71C
:1024F000280001F0D1F902000B003000390001F092
:1025000032F9524B002206000F0001F097F90EAB92
:10251000984600280AD10022300039004B4B01F0C8
:10252000A3F9002802D1EB0700D50135202C94D067
:1025300008AA94461723280063440A2101341E196F
:1025400000F0AEFE3031280031700A2100F0A8FE04
:10255000051EEBD10323249A1340012B1BD0202C02
:1025600000D180E70D9B002B35D02D224146631C06
:102570000A5579E700220A980B99344B01F05EF96D
:10258000002800D046E75346002B51D101239C463A
:10259000E2443FE72024239B002BE0D00D9B002B3F
:1025A00003D1249A0C33134202D0239B013B239383
:1025B000239BA342D3D908AB9C4617223023624405
:1025C000202C00D14FE72399013413558C42C6D0FB
:1025D000202CF8D147E7249B5B0724D4249A2300BE
:1025E000120700D440E72022414601330A553BE759
:1025F0005746089D202C00D12DE72200302140466F
:10260000002F09D00132B154202A00D123E7D3434F
:102610001B191B18002BF5D10EAB98462E234146F3
:10262000541C8B5482E72B224146631C0A551BE73E
:10263000DB0700D4EEE6A9E7FFFFEFFFFFFFEF7F28
:1026400065CDCD4165CDCDC110CC00100000E03F7F
:1026500018CA00101CCA001028CA0010249B03933B
:10266000239B029303230193004B23E724CA00100A
:10267000F0B5DE464E4657464546E0B59FB01C00D5
:10268000289B91460993C94AC94B8B4608901A600A
:10269000002900D118E2002320789A46002800D1B2
:1026A0001AE226001D005C460AE02A006F1C4B4619
:1026B000089D2100A8473D0001363078002870D0E1
:1026C0002528F2D110239B46083B9A46043B9846A6
:1026D000023B00219C46721C107816000300203B30
:1026E000DBB2102B03D8B34F9B00FB589F4603006F
:1026F000303B092B32D900230A932A2868D00023C3
:1027000098462E283ED00300683BDBB2122B1CD823
:10271000A94A9B00D3589F46012301321943DBE7A6
:10272000634601321943D7E7434601321943D3E7E1
:102730005B4601321943CFE7534601321943CBE7D9
:1027400080235B007078194301360300253BDBB220
:10275000532BAAD8994A9B00D3589F4600270300C1
:10276000B800C01901364000C018337830381A005C
:10277000303A0700092AF3D90A9018000023984636
:102780002E28C0D180237078DB0019430300303B32
:10279000721C092B00D8A1E12A2800D1B2E1160051
:1027A000B1E7A346AA462C00D14503D801235B42DA
:1027B0004B449A464B46524659460020089DA8472E
:1027C00020001FB0F0BCBB46B246A946A046F0BDF3
:1027D000099B40CB0A96002E03DB50780993561CC8
:1027E0008DE72838014370420A9009935078561CAF
:1027F00085E7782800D1DFE1582800D14CE26F2826
:1028000000D14FE3622801D100F030FC10230A0010
:102810009A430B92692801D000F0A9FC0A230C937B
:102820004B0500D5D0E10B9A802311009B00194085
:102830008B461A4200D0A1E2802311005B001940B0
:102840008A461A4200D0B6E313005B0600D5EDE2DB
:10285000130009991B0601D400F076FC08C91BB2CD
:10286000D8171A18424092B209919346DA0F129281
:10287000002B09D1802310220B99DB000B409143E0
:102880000B91002B00D0E4E20B9A6123920600D555
:1028900041230EA91F228C46DBB262440A3B5F46ED
:1028A0001395A34655460C9CB2460D9316000AE0BC
:1028B0003033DBB201357355A74200D2EDE2202D53
:1028C00000D1EAE207002100380000F011FDCBB290
:1028D0000929EDD90D9A94466344DBB2EAE78023D7
:1028E0009B007078194301362FE77078682800D173
:1028F000CDE180230136194327E770786C2800D199
:10290000BFE180235B00194301361EE7462800D152
:102910009BE10722099B0491073393430A9A19000C
:102920000392424602920CC90898009201930991C1
:102930002A004B462100FFF7CFFC01360500BCE61C
:102940002A006F1C4B46089D21002520A847013610
:102950003D00B2E68B0700D4ADE1099B2A009A4600
:102960006B1C9846534601CB21009A46089F4B4664
:10297000C0B2B8470A9B9C466544012B00D886E24A
:10298000089B4746B04626004C4699463A0023002D
:10299000013731002020C847AF42F7D1A146534646
:1029A000340046460993013687E6C046712600107A
:1029B000EC11002030CA001074CA0010C0CA001008
:1029C000099B04CB9B4643460992002B00D1C6E0ED
:1029D00013789C46002B00D1BDE34346013B099A86
:1029E0000133D0180A9F130001E0834203D05A78C4
:1029F0000133002AF9D1099A0A979B1A0B93802375
:102A00000A00DB001A400C92194204D00B9B43458C
:102A100001D943460B9302231A000A400D920B4240
:102A200000D187E16046002800D168E10C9B002BB3
:102A300000D10DE1A844C246099B57465B1B98464E
:102A4000089BB2462A0026004C46994609E023001E
:102A50003100551CC8474346585D002800D126E187
:102A60002A009742F3D1A1463D00340056460D9B03
:102A7000002B00D043E15B46013609931DE6099B1C
:102A80001A0008CA9246002B48D0212211438B46D7
:102A90000EA884461F216144099500220F27A446F1
:102AA0000D0002E0202A0CD00B003C001C4020004E
:102AB0003730092C00D807380132A85419090F2BD8
:102AC000F0D86446099D32E0DC4B2078089300235F
:102AD0009A46002800D0E4E5002465E64346060057
:102AE0000A9F9800C0180132400080191678030030
:102AF00030003038303B0928F3D9300098461600B2
:102B00000A9700E6099B023604CB9046D243404622
:102B1000D2171040804609933078F4E5102208005F
:102B2000904311321043834600224905B0D55B46DD
:102B3000069308230593434604931023039300232D
:102B4000029316AB019200932A004B46210008988D
:102B5000FFF7A6F85346050001360993ADE5137853
:102B60009C46002B00D1F7E202235B4237E720238B
:102B700002009A43472A04D180231B0119430223F0
:102B80009843452801D1202319430722099B04912A
:102B9000073393430A9A19000392424602920CC9E2
:102BA00008980092019309912A004B462100FFF7F3
:102BB0006DF90136050080E510230C930C230A0003
:102BC0009A430B924B0503D501230B9A9A430B9220
:102BD000692800D127E6642800D124E60B9A8023D7
:102BE00011009B0019408B461A4200D066E18023F9
:102BF00011005B0019408A461A4200D039E21300E6
:102C00005B0600D53CE113001B0600D4A6E2099B3D
:102C100004CB1204120C934609935B46002B00D0A0
:102C20009AE10B9A1033110099430B91520500D48D
:102C300092E100239A460B9B06930A9B0593434619
:102C400004930C9B039300230CE12023194360E6BB
:102C5000099B0A9A5B1B98464B4691461F00B24659
:102C60002600089C2A003B003100A047434601355E
:102C7000585D0028F6D14A463400B94656460A92B5
:102C8000F5E6C0239B00B078194302365DE5C0230A
:102C9000B0781943023658E50C230A009A431433DE
:102CA0001A43103B0B920C934B058DD496E7A1462B
:102CB00034005646DBE60A9A012A00D853E26B1E1E
:102CC0009F18089BB04626004C4699462A002300D0
:102CD000013531002020C847BD42F7D1A14634005C
:102CE0004646099B3A0001CB210098467D1C4B4685
:102CF000089FC0B2B847434601360993DDE40B9BF9
:102D00000A9AA8469A4200D8B5E694466544ED1A58
:102D1000089B4746B04626004C4699463A00230099
:102D2000013731002020C847AF42F7D1A146340017
:102D30004646A0E60B9A0A99531C914200D814E229
:102D40004B199B1A1F00089BB24626004C46994619
:102D50002A002300013531002020C847BD42F7D1A9
:102D60000A9BA14601330B93099B34001B785646FE
:102D70009C466046002800D058E67CE60722099B66
:102D800007339343013294469C4462465F6809923C
:102D90001A68FB1710931193109811990300534070
:102DA0000E930B007B400F9394460E9A0F9B121AC2
:102DB0008B410E920F93FB0F6246129300233A430E
:102DC0009B463DD00B9A6123920600D541230022F9
:102DD000DBB20EA90A3B8C4692460D9343461F3246
:102DE00062441395159655460E9E0F9FA246904637
:102DF0000C9C14930CE03032D2B2434601355A5544
:102E0000BB4500D18AE1202D00D18AE106000F00E8
:102E1000220000233000390000F0A8FAD2B2092ABB
:102E2000E9D90D9B9C466244D2B2E6E7FF2309999B
:102E300004C913401A00099117E5C046011C00108F
:102E40000B9A1033110099430B915205BAD5002308
:102E50009A460B9B06930A9B0593434604930C9B4F
:102E60000393129B02935346019316AB2A000093DF
:102E700021004B460898FEF713FF013605001CE4BD
:102E8000FF22099B02CB11408B460993C5E65346AE
:102E9000454609930136FFF710FC56465C46AA46A4
:102EA000139DD6E708230C930B910B99642800D04F
:102EB00084E60B9B5B0500D586E6B4E40722099BFC
:102EC00007339343013294469C44624609921A6840
:102ED0005B6810009B4613005A46134307D10B9AB8
:102EE0001033110099430B91520500D5A1E60B9ABE
:102EF0006123920600D541230022DBB20EA90A3BD2
:102F00008C4692460D9343461F3262445F461295AB
:102F1000A34655460400B24690460C9E13930DE01E
:102F20003032D2B2434601355A550023BB4200D15C
:102F300000E1202D00D100E104000F003200002349
:102F40002000390000F012FAD2B2092AE8D90D9B0C
:102F50009C466244D2B2E5E70B9A6123920600D503
:102F60004123DBB20EA90A3B1F228C460D9323009E
:102F700062445C461295170055469B46B2460C9E2D
:102F800008E03033DBB201357B55B4420ED3202D3F
:102F90000CD004003100200000F0AAF9CBB20929BE
:102FA000EFD90D9A94466344DBB2ECE756465C4693
:102FB000AA46129D3FE6099B1A0008CAD917139228
:102FC0005A184A409246DA0F1292002B08D18023F9
:102FD00010220B99DB000B4091430B91002B2BD15E
:102FE0000B9A6123920600D541230EAA1F2794460F
:102FF000DBB20A3B0D9567445D460993A3465446F0
:10300000B2460C9E08E03033DBB201357B55B4424A
:103010000ED3202D0CD004003100200000F068F900
:10302000CBB20929EFD9099A94466344DBB2ECE7A5
:1030300056465C46AB460D9D0B9B2A0006930A9BA9
:1030400021000593434604930C9B08980393129B1D
:10305000013602935B46019316AB00934B46FEF795
:103060001FFE139B05000993FFF727FB02230C9318
:103070001AE7099B04CB92461293002A08D18023B9
:1030800010220B99DB000B4091430B91002B2BD1AD
:103090000B9A6123920600D541230EAA1F2794465E
:1030A000DBB20A3B0D9567445D460993A34654463F
:1030B000B2460C9E08E03033DBB201357B55B4429A
:1030C0000ED3202D0CD004003100200000F010F9A8
:1030D000CBB20929EFD9099A94466344DBB2ECE7F5
:1030E00056465C46AB460D9D0B9B2A0006930A9BF9
:1030F00021000593434604930C9B089803930023F7
:1031000002935B46019316AB00934B46FEF7C8FD56
:10311000129B050009930136FFF7CFFAB44200D89D
:1031200071E6149B54460E960F97AA469846159E34
:10313000139D8EE6A64200D8FBE6139B56469846A2
:10314000AA465C46129D76E508C9D8171A1842406F
:103150000991FFF78AFB00230B9350E4099B04CBF2
:103160009346099359E52F00BBE50B9301E6063B17
:103170000C939AE60CB410B584B006AC08CC0A00E7
:103180000094010004480394FFF772FA04B010BCE5
:1031900008BC02B01847C046F91B001000B585B046
:1031A0000391012102900093034813004A4202A9AF
:1031B000FFF75EFA05B000BD7D1E00100FB410B51C
:1031C0000C4984B006AA08CA0C680392002C0BD0E4
:1031D000009201220848524202A9A047012004B0EF
:1031E00010BC08BC04B01847180000F0ABFE00206B
:1031F000F5E7C046EC1100206D1E001010B5094A1D
:103200000300146884B0002C08D001220091064805
:10321000524203A9A047012004B010BD00F092FE65
:103220000020F9E7EC1100206D1E00100148042178
:10323000014B1847200400205D320010142310B504
:103240000100188804331B88984710BD162310B559
:103250000100188802331B88984710BDF8B547460F
:10326000CE4680B50F1E19D01423994604330400AE
:103270000025012698464B461888434621681B883E
:10328000984701C4431E9841013540420640AF4271
:10329000F1D13000C0BCB946B046F8BD0126F8E710
:1032A000124A936F9B0815D29066D166002905D00B
:1032B000FFE7FFE7FFE7516F106F704704B580210C
:1032C0000906C2175140002800D0C84309F024FB6A
:1032D000002104BDF0B5146E556E576F166FFFF7E1
:1032E000E3FF1466556657671667F0BD000000D00F
:1032F000114A936F9B0813D210665166002905D0BE
:10330000FFE7FFE7FFE7516F106F704704B5002834
:1033100001D00020C04309F0FFFA002104BDC046DF
:10332000F0B5146E556E576F166FFFF7E5FF146614
:10333000556657671667F0BD000000D094464A4AAC
:10334000926F9208624601D228E0C046F0B5464E20
:10335000346E756E776F366F00F020F89446424AEF
:1033600014665566576716676246F0BD94463E4A36
:10337000926F9208624601D254E0C046F0B53A4ED0
:10338000346E756E776F366F00F04CF89446364A9F
:1033900014665566576716676246F0BD002B24DB3E
:1033A00011D000293EDA00B5C943404200D10131B5
:1033B00000F038F8C943404200D10131DB435242AA
:1033C00000D1013300BD002AEBD1002801D1002932
:1033D00005D00020C90FC90701D1C043410800B57D
:1033E00009F082FA0022002300BD00B500290ADBA3
:1033F000DB43524200D1013300F014F8C94340428C
:1034000000D1013100BDC943404200D10131DB434D
:10341000524200D1013300F005F8DB43524200D1A3
:10342000013300BD002923D1002B18D1002A0CD074
:10343000BC460D4F38667A6600210023FFE7FFE7A0
:10344000FFE77A6F386F67467047002801D007485A
:10345000010000B509F048FA0022002300BD020077
:103460000B00002000217047000000D0FFFFFFFF8D
:10347000002B00D0BFE0130C28D1002AE7D080B485
:10348000114F39667A66FFE7FFE730B4040C7B6FB3
:10349000396F1B0423433B667A66FFE7FFE7FFE7CC
:1034A000C04684B27B6F3D6F1B0423433B667A6644
:1034B000FFE7FFE7C04600232C042D0C7A6F386F1E
:1034C00000196941B0BC7047000000D0F0B59446C7
:1034D0000025140E01D112020835140F01D112017A
:1034E0000435940F01D192000235D40F01D152005E
:1034F0000135D40B0134254F7C66254C3C660E0CFF
:1035000093B2FFE7FFE7FFE73C6F6643360C7703B4
:10351000BE467343DF0B5B04C01AB941130C7343FF
:10352000DB18C91ACE086643360CB64493B273430F
:103530001F0F1B01C01AB941130C73431F0B1B054E
:10354000C01AB941860D8F023E436643360C092DE1
:1035500024DB520A7243801A7703460A6643360C0C
:1035600016235B1BDE40DF40BF1964466643821BA7
:103570007046043506330100D940A840C01900D375
:103580000131A24206D20023F0BD0000000000D0AD
:10359000FFFFFFFF121B0130F3D3F1E709277F1B69
:1035A000FE406446A2B27243801A00D20139220C56
:1035B0007243130C1204821A99410B0070460435B1
:1035C00013370100F940A840801900D30131002BC6
:1035D00002D1A2420AD2F0BD013000D30131121B48
:1035E000FAD2013BF8D1A24200D2F0BD013000D3A3
:1035F0000131121BF7E7F0B51C0C00D080E00CB4D1
:1036000000251C0A04D11B02160E33431202083592
:103610001C0B04D11B01160F3343120104359C0B04
:1036200004D19B00960F334392000235DC0B02D18C
:1036300092185B4101351C00971864410134464FD4
:103640007C66464C3C660E0CFFE7FFE7FFE7C04692
:103650003C6F6643360C7703BE4697B27743C01B78
:1036600000D20139C01B00D201399FB27743C91B78
:10367000C91B170C77437E04FF0B801BB941CE0892
:103680006643360C0C2D33DBB644120B1F053A4350
:103690001B0B97B27743C01B00D201399FB277430F
:1036A000C91B170C77433E043F0C801BB941860DA4
:1036B0008F023E43664329277F1BFE400C3D774621
:1036C000AF40BF1930BCA2B2ABB272437343801A91
:1036D0009941220C7243130C1204801A9941020082
:1036E0000B000137001BA941F9D2781E0021F0BD63
:1036F0000C277F1BFE4077467F0BAF40FF19E0E7AA
:1037000000245D1C07D0144F7D663966FFE7FFE794
:10371000FFE7FFE73C6F95B29EB265436643401BEF
:10372000B141150C1E0C6543664336042F0C3E4315
:103730002D04401BB141994204D202000B0020002D
:103740000021F0BD01D19042F7D3801A9941013494
:103750009942F2D3F6E70000000000D0FFFFFFFF20
:1037600048404140484018B4134B5B68019308BD82
:1037700018B4114B1B68019308BD94460F4A926F11
:10378000920805D2624618B40B4BDB68019308BD62
:103790000A4AF0B5146E556E576F166F6246FFF702
:1037A000F2FF064A1466556657671667F0BD18B4EF
:1037B000014B9B68019308BDD80F0020000000D08A
:1037C000FFB550404240504059404B40594000E006
:1037D000FFB5154F4C00640D03D0BC4204D10C035F
:1037E00014D80020090D09055C00640D03D0BC420B
:1037F00004D11C030AD800221B0D1B0501264B40D7
:1038000009D44B4003D58B4200D18242FFBD99427F
:10381000FCD19042FFBD0B43DB1803431343F5D0AB
:10382000C9434918FFBD0000FF07000000B5FFF7BE
:10383000CFFF01D0002000BD012000BD00B5FFF783
:10384000C7FF804100BDC04600B5FFF7C1FF01D9E9
:10385000002000BD012000BD00B5FFF7B1FF01D978
:10386000002000BD012000BD00B5FFF7A9FF804189
:1038700000BD012040054A00121804D85A00121851
:1038800001D80020704701207047002070470000D9
:103890000021002805D17047C1174840401AFAD0CE
:1038A000C90713B5064B1B6898470CBC441CA240C3
:1038B0001005120B0349091B09051943114310BDDB
:1038C000041200201F04000010B54C00620D80237C
:1038D000D218DB00D21A5B057E2A10DD9E3A13DA7D
:1038E000CC170903490819435242D14064000134FE
:1038F0001532202A05DAD0400843604310BD00206D
:1039000010BD0846604310BDC80FC018013810BD77
:1039100018B4024B5B6A019308BD0000D80F002069
:1039200010B50148FEF74AF960CC0010132370B5BA
:103930001D78012D11D035DD1C48FFF787FC1C4C8C
:1039400001008022200000F099F9022D27D01948AB
:10395000FFF774FC184B186070BD184B144C2360B3
:103960006360A360E36023616361A361E361236239
:103970006362A362E36223636363A363E363236419
:103980006364A364E36423656365A365E3652366F9
:103990006366A366E36623676367A367E367084B11
:1039A000A364D4E7024C064BA364D0E75344000061
:1039B000D80F00204C3300000412002021390010E1
:1039C000C539001007B5604601880A0A0230DF2AAF
:1039D000FAD1C9B2820804D3028840880004104397
:1039E00000E00068014A5050039007BDD80F002046
:1039F00051434343C9188C46110C83B24B4310B456
:103A0000040C614392B280B2504362431C041B0C0D
:103A1000001910BC59411304120CC01851416144E3
:103A2000704700004840414048400E4B5B681847D3
:103A30000C4B1B6818470C4A936F9B0802D2094B2A
:103A4000DB681847F0B5146E556E576F166FFFF7A9
:103A5000F6FF054A1466556657671667F0BD014BB9
:103A60009B68184708120020000000D007B54840A6
:103A70004140484001E0C04607B54200120E03D065
:103A8000FF2A03D1420218D8C00DC0054A00120E09
:103A900003D0FF2A03D14A020FD8C90DC90501225C
:103AA000414005D4414001D5814207BD884207BD50
:103AB0000143491801D0C043001807BD00B5FFF706
:103AC000D5FF01D9002000BD012000BD491A002802
:103AD00008D1084670470000C10FC90700D5404211
:103AE000002817D0F44603B40B4B1B68984706BC5C
:103AF00081409E384042803107D20B0607D04900F2
:103B0000490AC0051043084360470130F8E7490AF5
:103B10008902F5E7704700000412002010B5014843
:103B2000FEF74CF86CCE0010132310B510481C782B
:103B3000FFF78CFB0100012C0AD003DD80220D4829
:103B400000F09CF80C48FFF779FB0C4B186010BD97
:103B5000084C5422200000F091F82300084A8033DA
:103B60002168002900D122600434A342F8D1E9E79A
:103B700053460000081200204C33000004120020BD
:103B80001D3B001070B504000A4E300008F0D4FE52
:103B9000200002F0F1FD0500300008F09DFE002D30
:103BA00005D0054B2C199C4201D8280070BD034854
:103BB000FEF704F8140E00200000042078CC00105A
:103BC00070B505000C000B4E300008F0B5FE280063
:103BD000210002F097FD0500300008F07DFE002D69
:103BE00005D0054B2C199C4201D8280070BD034814
:103BF000FDF7E4FF140E00200000042078CC001034
:103C000070B505000C000B4E300008F095FE280042
:103C1000210003F083F80500300008F05DFE002D60
:103C200005D0054B2C199C4201D8280070BD0348D3
:103C3000FDF7C4FF140E00200000042078CC001013
:103C400070B50400054D280008F076FE200002F053
:103C50009DFD280008F040FE70BDC046140E0020F7
:103C600001480421014B1847300400205D32001048
:103C7000014B1B681847000030040020014B5B68B3
:103C80001847000030040020030010B508001100A0
:103C90001B68984710BDC046F0B546464F46D6460D
:103CA000C0B5437D80460E001700002B46D0002A89
:103CB0003FDD4B1E9946244B0125002400209A46E7
:103CC0000DE04B461B5D0D3B5A425341325DDBB26A
:103CD0000A2A0BD02B00013401359F421ADD002C3B
:103CE000EFD14346325D1B7D0A2AF3D1002BF1D17F
:103CF000A04204DA4346211A1B683018984743460D
:103D000050461B6802219847013428002B000135DA
:103D10009F42E4DC874204DD4346391A1B683018B1
:103D20009847F619013E33780D3B5A4253414246BB
:103D30001375E0BCBA46B146A846F0BD0368110051
:103D400030009847F5E7C046FCCC0010F0B5C646F9
:103D50000C000968060000B5802906D04B1C2360C2
:103D60006418267180BCB846F0BD0F4B1D68002D4D
:103D700016D0231D98460D4F02E02D69002D0FD05F
:103D80002B68002BF9D03B68002B01D0AB42F4D15B
:103D9000280041462268FFF77FFF2D69002DEFD1F3
:103DA00001230021DBE7C046E0110020E4110020E0
:103DB000F0B5DE4657464E464546E0B585B017009D
:103DC0001C0006000D00FDF791F90023304A12187F
:103DD0004B41002B58DB2F4908008A4608F0A4FD10
:103DE00001906B1C03D1300003F0A4F90500002CF6
:103DF00025D1294B9846294B1C68002C15D0002F43
:103E000020D1274F02E02469002C0ED02368002B1C
:103E1000F9D03B68002B01D0A342F4D120002A0046
:103E20003100C0472469002CF0D1019B002B27D121
:103E300005B0F0BCBB46B246A946A046F0BD194B42
:103E40009846D8E7164B994602ABDF1D0A239B46DE
:103E500002E02469002CE8D02368002BF9D04B46FF
:103E60001B68002B01D0A342F3D12A0031002000AF
:103E7000C0475B460122390020003B70C047E8E79D
:103E8000504608F029FDD3E70122074B5242A2E732
:103E900040420F001C0E0020993C0010E011002051
:103EA000E4110020893C0010FFFFFF7FF0B5CE46F3
:103EB000474680B583B06B460600DD1D2870FDF7D0
:103EC00015F900231A4A12184B41002B2BDB194914
:103ED0000800884608F028FD174B81461C68002C16
:103EE00014D0164F02E02469002C0FD02368002B59
:103EF000F9D03B68002B01D0A342F4D1200001226D
:103F00002900FFF7C9FE2469002CEFD14B46002B96
:103F100005D1300003B0C0BCB946B046F0BD404644
:103F200008F0DAFCF5E70122054B5242CFE7C04624
:103F300040420F001C0E0020E0110020E411002080
:103F4000FFFFFF7F70B5040003F0F4F800230100C9
:103F5000050001222000FFF72BFF084B1C68002CF6
:103F600006D06368002B05D098472469002CF8D14F
:103F7000280070BD2469002CF3D1F9E7E01100207E
:103F8000F0B54746D64680B516000F0083B000282E
:103F90002DD11C4B1C4D1A685B68019200931B4B82
:103FA0009A461B4B984653461C68002C03D114E0DC
:103FB0002469002C11D02B68002B01D0A342F7D12B
:103FC000A368002BF4D03100380098470028EFDDBB
:103FD00003B0C0BCBA46B046F0BD434600995B6A28
:103FE000994209D842460198926A824202D301203E
:103FF0004042EDE79942FAD101200021FDF780F817
:10400000D1E7C04690C90010E4110020E011002063
:1040100000400540F0B54646D6464F460138C0B58B
:104020000D00160001283ED8FDF760F800231F4A56
:1040300012184B41002B32DB1D49B046080089465F
:1040400008F072FC8246731C03D1280003F072F85A
:104050008046184B1C68002C14D0174F02E02469CE
:10406000002C0FD02368002BF9D03B68002B01D027
:10407000A342F4D1200042462900FFF70DFE246937
:10408000002CEFD15346002B05D13000E0BCBA46DE
:10409000B146A846F0BD484608F01EFCF5E70122EF
:1040A000064B5242C8E701267642EEE740420F0037
:1040B0001C0E0020E0110020E4110020FFFFFF7F14
:1040C000012040427047C046012040427047C04630
:1040D000012040427047C0460300022200209A425D
:1040E00040417047F0B5CE46474680B5A5B00400C4
:1040F0000D00FCF7FBFF00232A4A12184B41002B4E
:1041000049DB294E300008F00FFC00230700039321
:1041100022002B00254803A9FFF740F8039B8046A7
:10412000002B14D1224B1C68002C06D06368002B96
:104130000BD098472469002CF8D1002F27D1404696
:1041400025B0C0BCB946B046F0BD2469ECE7184BB9
:104150001D689946002D22D0164C02E02D69002DD5
:1041600011D02B68002BF9D02368002B01D09D4281
:10417000F4D1039B28001A0004A90193FFF78CFDDA
:104180002D69002DEDD14B4603951C68CCE730001E
:1041900008F0A2FBD3E70122074B5242B1E7039597
:1041A000CBE7C04640420F001C0E00204D3D0010E2
:1041B000E0110020E4110020FFFFFF7F0FB400B5E5
:1041C00083B004A901C90191FFF78CFF03B008BCBB
:1041D00004B0184710B500F003F8012010BDC04628
:1041E0007047C046F8B5DE4657464E4645468346BC
:1041F000E0B505200C00FDF7BDFB060060082100BE
:104200008019FFF775F843009846804407000521A0
:104210004046FFF76DF83B1A9A46204B81467000E6
:1042200080199C4234D81E49FFF762F8451C5B4652
:104230001C680023E36622680433534006221A40B8
:1042400080235B0123431A605346E3614B4623629C
:10425000434601204F2B03D950214046FFF748F831
:10426000A0232200E0508023E06F7C3245402D04E3
:104270005B0113432D0C1D60012339003000E36600
:10428000FFF736F8F0BCBB46B246A946A046F8BDDB
:104290000449FFF72DF8451CC9E7C0463F420F000F
:1042A0008096980040787D01104A70B5821A53427A
:1042B0005A41072352429A430D4B10321A600D4B5C
:1042C0000D4C1A601500A3689D432B1EFAD166247D
:1042D0000268FF340571D5661460633C8833FF3C87
:1042E000D5639563D450FFF77DFF70BD4004002077
:1042F00000E0004000F0004000C00040F0B557462C
:104300004E464546DE4690460022E0B583B01E008C
:104310000CAB1B7884469A460368DA660132596012
:10432000DA66002E4FDD51464A4052020192802249
:10433000914632008025771E002046461021904687
:10434000AD000024002804D162461479621E944115
:10435000A40200229346B8421AD0325C22435C4643
:1043600022431A615A6B1142FCD04A469C58002CD9
:1043700011D1B84222D001308045E2D16346524685
:104380001A7103B0F0BCBB46B246A946A046F0BDC8
:10439000019A9346E1E75A6D012293465A6B2A42ED
:1043A000FCD01A6E5A46002AE5D0002C03D0E30751
:1043B00001D42307E2D402204042DFE75246002A1C
:1043C000D9D1D346EAE70020D8E7C04670B584B01B
:1043D000099C1500089E0A9B8C4210DC0DD0A1425E
:1043E00009DC06D09D420AD393428041404204B08A
:1043F00070BDB042F6D90120F9E78642EFD901201D
:104400004042F4E7C16880687047C046034BC1680A
:1044100080681A685B68801A9941704750040020D0
:1044200010B5124C200002F0DFF8002819D12268E4
:1044300063680F490F4C0868496812184B410E49D0
:104440000868496812184B41616820688B4203DC98
:1044500000D010BD8242FCD91000190022606360B8
:10446000F7E7064801F0E4FEE1E7C0464804002013
:10447000400E0020380E0020480E002000CD001015
:1044800010B5144C200002F0AFF800281ED12268AD
:1044900063681149114C0868496812184B4110496A
:1044A0000868496812184B41206861688B4208DC33
:1044B00005D00C4B1A685B68801A994110BD824286
:1044C000F7D91000190022606360F2E7064801F096
:1044D000AFFEDCE748040020400E0020380E00202C
:1044E000480E00205004002000CD0010F0B54E46CC
:1044F0004546DE465746E0B51D0013000400160091
:1045000093B02B4300D1C1E0002D00DAABE0049260
:10451000FA2200233000290092000595FEF70EFFD5
:1045200080460F00002D00DCC5E0069007910023B7
:10453000300029007A4AFEF701FF82468946002DA5
:1045400000DCC4E0534608934B4630000993290031
:104550000023744AFEF7F2FE80460F00002D00DCB7
:104560009BE00A900B91E823300029006E4AFEF789
:10457000E5FE82468946E82D00DCB1E053460C9307
:104580004B4630000D932900684B694AFEF7D6FE72
:10459000664B834603919D4200DCAAE05B460E9386
:1045A000039B30000F932900624B634AFEF7C6FE5F
:1045B000604B80460F009D4200DCA5E006250726E3
:1045C0001090119103239946013B9B46013B9A466B
:1045D000023EFA224046390000239200FEF7AEFE6A
:1045E0000521904600922000544A01931F00FEF7D7
:1045F000C1FD002F0BDC07D003DC59D14346092B4A
:1046000056D9D946023403E04346632BF6D9033426
:10461000002D20DD04AB9C46494B37009846F50041
:104620006544FA222868696800239200FEF786FE36
:1046300020000092019308214246FEF79BFD0434BE
:104640003B00083D013F002BEBDCF343DB171E4032
:104650000136B600B144484613B0F0BCBB46B24682
:10466000A946A046F0BD02223649FFF707FB029B90
:1046700002269846042301259946013B9B46013BAF
:104680009A46039F013476426D42A2E702222E49E8
:10469000FFF7F4FA01239946DDE7002D03D12B4BF8
:1046A0009E4200D95DE7D0464F460225032689E7A2
:1046B000D1460134ACE7002D04D1FA239B009E4281
:1046C00000D332E7B0462F00012600257AE7002DFF
:1046D00003D11F4B9E4200D934E70125022671E722
:1046E000E82D03D11B4B9E4200D947E70325042642
:1046F00068E79D4203D1184B9E4200D94EE7D04651
:104700004F46042505265DE79D4203D1134B9E428B
:1047100000D953E7D84605250626039F52E7C04631
:1047200040420F0000CA9A3B0010A5D47E8D0300C2
:104730000080C6A4B3B6E00D000064A728CD001029
:1047400030CD001024CD00109CCC0010FFC99A3B46
:104750003F420F00FF0FA5D4FF7FC6A4FFFF63A752
:10476000010070B50120FFF72BFA051E0CD00821BF
:104770000120FFF725FA041E0AD0074B28001A680B
:10478000256062601C6070BD044801F0D9FDEEE751
:10479000024801F0D5FDF0E74411002038CD0010AB
:1047A00082B010B5183084B00100069204001022C7
:1047B00068460793FFF762FA06980799089A099BDB
:1047C000FFF704FE002804DA1022200006A9FFF7F4
:1047D00055FA04B010BC08BC02B01847F8B5050083
:1047E00000F0E4FF296CAA6BEB6B8A4201DA11003E
:1047F0006B6B002906DD00208900591804CB10706E
:104800008B42FBD16B6C002B18D02E00443630004D
:104810000024002701F0B4FA84420FD221003000B6
:1048200001F084FA002803D00368002B00D01F6039
:104830003000013401F0A4FA8442EFD300232B644A
:10484000F8BDC046010082B000B585B0069268464A
:10485000102218310793FFF711FA099B0698079960
:10486000089AFFF7B3FDC317181AC00F05B008BCAC
:1048700002B01847F8B54746CE4680B50E6A4F6A73
:10488000330080460D003B4314D18B69002B0CDDB7
:1048900000246A69A300995801224046524201F05F
:1048A000B9F8AB690134A342F3DCAE6AEF6A3300B6
:1048B0003B4312D04346D86A01F0CCFB041E10D013
:1048C0004046A560FFF79EFD434636184F41210044
:1048D00026606760986A01F09BFBC0BCB946B04691
:1048E000F8BD20210120FFF76BF9041EE8D1024832
:1048F00001F026FDA560FFDE38CD0010026E70B518
:104900000500002A0CDD0024E86DA300C158002931
:1049100007D02800FFF7AEFF2A6E01349442F3DB84
:1049200070BD01349442F0DBFAE7C046826E70B588
:1049300005000024002A03DC13E00134944210DA5D
:10494000696EA30059580029F7D00B6E002BF4D1E3
:1049500001222800524201F05DF8AA6E013494420F
:10496000EEDB70BD026F70B505000024002A03DC89
:1049700013E00134944210DAE96EA300595800297B
:10498000F7D00B6E002BF4D101222800524201F027
:1049900041F82A6F01349442EEDB70BDF0B5DE467B
:1049A0004E464546574688460100E0B58FB01F0089
:1049B000189B0500083116000AA810229946FFF737
:1049C0005DF918239B46AB44102259466846FFF711
:1049D00055F90A980B990C9A0D9BFFF7F7FC0028E4
:1049E00000DDD8E0002F00DADFE04B46002B03D0DB
:1049F0004A46DB680133D3604346002B00D1FEE01A
:104A00001B7F002B5BD0AB68EC6804930594434696
:104A1000E86ADC6A9B6A0693079401F01BFB041E9C
:104A200000D1E0E00023A3614B46236143464246A8
:104A3000A3603023D35C002B47D1049A059B9219C5
:104A40007B411F004346DB6A1600002B45DB4346D3
:104A50001B7F002B00D087E043465B6B9A46002B00
:104A600000D181E01A685B6806980799801859415F
:104A700004920593089009918F4275DC00D1C3E040
:104A800038214346595C012900D1C0E002295FD09A
:104A9000AB68049A934265D1EB68059A934261D161
:104AA0005146A86A01F0AEFA00285BD052462B6945
:104AB0001168526801330A910B920C9325E043462A
:104AC0005C6A1B6AF61867419DE7FFF7A9FC43463D
:104AD000DB6A36184F41002BB9DA21002660676087
:104AE000A86A01F08FFA824600283DD08369002B26
:104AF00000D1A2E0022218009B6911000132002BB4
:104B0000F9D182460A960B970C91102259466846B5
:104B1000FFF7B4F80A980B990C9A0D9BFFF756FC17
:104B2000002850DC534600209C612DE0069A079B2C
:104B3000002B02D1002A00D06DE05146A86A01F096
:104B400061FA002867D153461A685B68049205939E
:104B5000049A059BE968A8688B4264DC60D0049BDA
:104B600098426CD0089E099FEB6926606760BB4243
:104B700026DB22D043462100A86A5C6301F048FA94
:104B8000A86D431C0FD4AB650FB0F0BCBB46B2465A
:104B9000A946A046F0BD484600F0F2FD2D4801F0C0
:104BA0008BFB0020F0E70123EDE732003B002A48B1
:104BB00001F082FB0026002717E7AB69B342D9D288
:104BC000484600F0DDFD00220023226063600023E0
:104BD0002100E86AA360E36023612375A36101F00B
:104BE00017FA0020D0E720210120FEF7E9FF041E7C
:104BF00000D017E7194801F0A3FBA461FFDE484687
:104C000000F0BEFD0020BFE78642ADD838E7079B25
:104C1000002B00DC8AE753461B694B45D0D1D2E715
:104C2000049B83429BD953461869814501D000F00B
:104C3000A7FD53464A461A61C5E7012162E7059B75
:104C4000994200D08EE75146A86A01F0DBF90028AE
:104C5000E9D187E748CD001070CD001038CD0010A5
:104C6000F0B54646D6464F46C0B5060082B0806ACB
:104C700001F004FA00285DD039239A46383B994662
:104C800018E0A169002902D0306B01F0C1F90022BF
:104C900000232260636000232100F06AA360E360C8
:104CA00023612375A36101F0B3F9B06A01F0E6F95D
:104CB00000283FD00368B26893423BD14368F26852
:104CC000934237D1B06A01F0C5F9037D0400002B8F
:104CD000D7D10369806898468269002A0CDD436950
:104CE00000259C4638276146AB00C958CB5D002B98
:104CF0002BD001359542F6DB53464A46C254037F1A
:104D0000002B04D0C36A826A002B2DDC2AD04146D6
:104D100000F014FD404600F033FD52464946A368BA
:104D20009954AEE7306BB46A01F094F901002000A9
:104D300001F06EF9306B01F0A1F90028F2D102B058
:104D4000E0BCBA46B146A846F0BD0122300052424E
:104D500000F060FEA068013582699542CCDA4369B3
:104D60009C46C0E7002AD2D000210091010030000B
:104D7000FFF714FEA068CAE7C16810B584688B42CB
:104D80000ADC07D094420CD199420AD1036901335D
:104D9000036105E0A242F5D9C3600023826003618C
:104DA00010BD024801F0CCFAFAE7C046B8CD0010B9
:104DB000486810B50C000B68416098470022636892
:104DC0005A6010BDF0B5DE4657464E464546E0B542
:104DD00093468A6A81468A4685B0002A76D00023A7
:104DE00000270193390004E0019B013301939342B2
:104DF00058D25046019BC06A9B000293C358002BB7
:104E0000F2D01B78002BEFD05346586B029BC05852
:104E100003905046006BC0580028E5DD00239846FB
:104E200004E001239C46E044804534DA4346039A7B
:104E30009B00D658002EF4D0B269002AF1DD002480
:104E40000FE0002903D05A46484600F0E3FD5A46D9
:104E50002900484600F0DEFD0021B2690134944289
:104E600010DA7069A3001D58002DF7D08D42F5D0DF
:104E70000137012FE5D16B6A5345E2D10134290096
:104E80009442EEDB5346029A1B6B985801239C46D2
:104E9000E0448045CADB53469A6A019B0133019383
:104EA0009342A6D30F1E11D04B6C002B15DA7868F5
:104EB0003B684760984700227B6839005A60484643
:104EC0005A46FFF77FFF48230022FA5405B0F0BC92
:104ED000BB46B246A946A046F0BDFFF7A1FA3A6C20
:104EE0007B6C14001C4309D04C46E568A468121979
:104EF0006B41994202DCDAD19042D8D9FB6C002B8D
:104F0000E1D0786898475A4639004846FFF75AFF7B
:104F1000D9E7C046F8B505001B480E00FFF712F8A8
:104F20001A48FFF70FF81A48FFF70CF81948FFF76F
:104F300009F81948FFF706F81848FFF703F818486A
:104F4000FFF700F81748FEF7FDFF1748FEF7FAFFD6
:104F50001648FEF7F7FF1648FEF7F4FF1548FEF770
:104F6000F1FF1548FEF7EEFF002D09DD0024134F79
:104F7000A3003800F1580134FFF720F9A542F7D11A
:104F80000F48FEF7DFFFF8BDF8CD001014CE00107B
:104F900030CE001070CE001094CE0010E0CE001085
:104FA00030CF001044CF001090CF0010A4CF0010DD
:104FB000E0CF0010F0CF00102CD000103CD000103B
:104FC00028D00010F0B54546DE4657464E46E0B5BF
:104FD000012405008BB001286DDDC04B01919B467B
:104FE0001AE043465B78662B20D143469B78002B22
:104FF0001CD1554500DC04E1019B59469C466744A1
:105000007F680234380002F051F800285BD1012299
:10501000B34B1A70AC424EDA631C9A46019BA70050
:10502000DB5998461B7899462D2BDAD04046AD497E
:1050300002F03CF80028DCD04B462D2B4CD14346E7
:105040005B786F2B48D143469B78002B44D1A31C3F
:10505000AB4200DB1FE1019B03349C4667447B6845
:10506000BF681800994601F041FB9F4B039119005E
:1050700002909846029A039B0A604B601100194304
:1050800004D14B461B78302B00D01BE13B7899466E
:10509000732B50D17B78652B4DD1BB78632B4AD1D4
:1050A000924A002302980399FEF7A2FC4346186037
:1050B0005960AC42B0DB01200BB0F0BCBB46B2463D
:1050C000A946A046F0BD3800894901F0EFFF00284D
:1050D0002CD1834B18709DE74046864901F0E6FFCE
:1050E0000028B4D04046844901F0E0FF0028AED04B
:1050F0004B462D2B00D179E04046804901F0D6FF88
:10510000002800D091E0554500DC40E1019B734947
:105110009C4667447F680234380001F0C7FF0028CE
:1051200000D079E00122764B1A7073E73900754898
:1051300001F07EF86EE704223800734902F028F887
:1051400000282ED10299039ACB0E500118434B012F
:1051500005900493049E059F761A97413200F10D45
:105160007E020E435302069307960299039A069E07
:10517000079F7618574132003B00B10EBE010E4327
:10518000099696010896089E099FB61A9F410298B3
:10519000039932003B0012184B4141460A604B60B4
:1051A00038E704223800594901F0F2FF002802D103
:1051B000FA22920075E704223800554901F0E8FF11
:1051C000002800D126E74B466D2B4ED17B78692B0A
:1051D0004BD1BB786E2B48D1029803990D234D4AD1
:1051E000FEF706FC43461860596013E743465B78B8
:1051F0006B2B00D080E743469B78002B00D182E7E1
:105200007AE7019B4448984601F012F8280041468D
:10521000FFF780FE00204FE73800354901F046FFD8
:10522000002833D1364B1870F4E64B462D2B04D1B1
:1052300043465B78772B00D18CE04046374901F03C
:1052400035FF002800D07DE0554500DCA3E0019B40
:1052500002349C4667447F68380001F03BFA00281E
:1052600000DC8EE02E4B1860D4E6042238002D4975
:1052700001F08EFF002812D1029803992A4B2B4A85
:10528000FEF7B6FB434618605960C3E6390028486C
:1052900000F0CEFFBEE6019B26489846B4E74B4699
:1052A000642B5DD17B78612B5AD1BB78792B57D198
:1052B00002980399204B214AFEF79AFB4346186057
:1052C0005960A7E6019B494698461D4800F0B0FF8B
:1052D00028004146FFF71EFE0020EDE660D00010DA
:1052E0001E13002040D000105804002000CA9A3B32
:1052F00068D0001090D000109CD0001020D1001079
:105300002013002070D00010E0D00010E8D0001072
:10531000F0D00010005847F848D0001070D10010AD
:1053200040110020F8D000104603000000A0B83063
:105330004CD10010A8D00010944E000000004F91F6
:10534000C8D0001040461B4901F0B0FE002826D10D
:1053500054465FE643469B78002B00D174E76CE728
:1053600004223800144901F013FF00281DD10298CF
:105370000399124B124AFEF73BFB434618605960F3
:1053800048E61048390000F053FF01206AE7019B0E
:105390000D48984638E7019B0C48984634E7474645
:1053A000019B390098460A4890E7019B39009846CE
:1053B00008488BE7D0D1001000D100100F26020062
:1053C000000029F9A4D100102CD100107CD10010CC
:1053D000DCD1001008D10010002300B5054A83B0CD
:1053E0001360054A01A81360FBF742F8FBF746F883
:1053F00003B000BD2C11002030110020F0B5CE46C6
:10540000474680B58BB001A8FBF732F8050001983C
:10541000FBF776F8002D29DD4F4B002498464F4BC3
:105420004F4E99464F4F019B3000596800F0BCFE2B
:1054300001980378002B68D0FFF7D0F90198836AB0
:10544000002B05D0180000F0D5FD002844D10198AC
:10545000FEF7DCFF02000B1E5CDA019800F0F4F9A5
:10546000019B883301930134A542DCD100F0F6F8AA
:105470003D4C2368002B06DD3C4800F01DFF2168F1
:105480003B4800F019FF3B4C2368002B06DD3A48EF
:1054900000F012FF2168394800F00EFF384F3D68D8
:1054A000002D51D02E68002E0BD03468002C08D06F
:1054B0002068FEF7C5FB20006468FEF7C1FB002CE6
:1054C000F6D13000FEF7BCFB6C682800FEF7B8FB95
:1054D000002C39D02500E5E7019B986A00F08AFD91
:1054E0000100284800F0E8FE019B986A00F0C6FD24
:1054F0001C4B416800681A685B68801A9941020079
:105500000B00214800F0D8FEA1E741681F4800F0D9
:10551000D3FEA8E702A8FEF7E9FF404602A9FEF77E
:105520004DFE7B68002B03DC97D13B68002B94D0A9
:10553000FEF7A6FF02000B0002A8FEF7D7FF4846C1
:1055400002A9FEF73BFE88E700233B600BB0C0BC1E
:10555000B946B046F0BDC046D8D2001004D3001002
:1055600004D20010500400202C11002030D3001071
:1055700064D300103011002084D30010B4D3001085
:105580004411002050D2001094D2001024D20010F8
:1055900070B50400006800280AD0294A1368013B4E
:1055A0001360A3685B68002B46D0984700232360F4
:1055B000002000F0B3FB002825D1224D28680028E8
:1055C00028D000F0E5FE80239B0098420FD22100F6
:1055D000286800F00BFF002829D0002000F0A2FB73
:1055E00000280CD1184A1368013B136070BD2000DD
:1055F000FEF726FB002000F095FB0028F2D01348B0
:1056000000F09EFEEEE7124800F09AFE0D4D28686D
:105610000028D6D1043000F0C9FE28600028D0D17F
:1056200000F080FB0B4800F08BFE2868C9E72100E2
:10563000094800F041FED0E7FEF702FBB6E7C0469E
:105640002C110020501100203011002070D40010C7
:10565000D4D30010F8D3001030D40010F0B5C646F3
:10566000002000B500F05AFB002854D12E4F3868B6
:10567000002828D000F07AFF05002C4B280098461F
:10568000002600F081FF002815DB280000F096FFBF
:105690000400C068002808D0C368002B35D0013B47
:1056A000C360002B01D1FFF773FFE660280000F014
:1056B0006BFF0028E9DA2800FEF7C2FA386800F02C
:1056C00069FE00233B601A4D2868002815D000F0C1
:1056D0004DFF040004E0200000F070FFFEF7B0FA78
:1056E000200000F051FF0028F5DA2000FEF7A8FAAC
:1056F000286800F04FFE00232B60002000F012FB12
:1057000000280CD180BCB846F0BD0100404600F036
:10571000D3FDE660CAE7074800F012FEA6E7064898
:1057200000F00EFEEEE7C0465411002094D40010A5
:1057300050110020D4D3001070D4001070B50500B3
:10574000C0680C0088420ED0002806D0C368002B29
:105750000FD0013BC360002B06D0002C02D0E368C1
:105760000133E360EC6070BDFFF712FF002CF6D14F
:10577000F8E70100014800F09FFDEEE794D4001027
:1057800010B5002806D0C368002B08D0013BC360C9
:10579000002B01D0002010BDFFF7FAFEFAE7010050
:1057A000014800F089FDF5E794D4001070B50E4D66
:1057B0002C68002C16D00D4E08E0013BC360002B76
:1057C00001D1FFF7E5FE2C60002C0BD02000C36850
:1057D0002469002BF1D10100300000F06DFD2C6038
:1057E000002CF3D170BDC0465811002094D4001095
:1057F000D0B516001F00002384B003618660C76027
:105800000400102268460E49FEF738FA099B002B67
:105810000FDB089A099B0021B6185F412000029116
:1058200010226946183000960197FEF727FA04B057
:10583000D0BD01210126034F49427642EEE7C04622
:10584000C8D40010FFFFFF7F10B50400C06DFEF745
:10585000F7F9606EFEF7F4F9E06EFEF7F1F9606FAC
:10586000FEF7EEF9606BFEF7EBF9E06BFEF7E8F997
:10587000A06A00F0B5FBE06A00F0B2FB206B00F01C
:10588000AFFB8423E05800F0ABFB10BDF0B5DE4663
:1058900057464E4645460400E0B51D0085B010222F
:1058A00041604E491830119EFEF7E8F92566402107
:1058B0002800FEF785F9E065431E9841484DC0B2C7
:1058C000290000F04FFD0E9B6821A3661800FEF72B
:1058D00077F96066431E98412900C0B200F042FD8E
:1058E0000F9B682123671800FEF76AF9E066431EE4
:1058F00098412900C0B200F035FD109B6821A367D4
:105900001800FEF75DF96067431E98412900C0B298
:1059100000F028FD0023A663236404213000FEF775
:105920004FF96063431E98412900C0B200F01AFD90
:1059300004213000FEF744F9E063431E984129003A
:10594000C0B200F00FFD2748012182462648274EAD
:10595000274D284F814602902748330080462A0071
:10596000A1650190514600970A2000F00FFBA0624C
:105970002248330083464846029040462A00594652
:10598000019000970A2000F001FBE0624846029077
:10599000404633002A005946019000970A2000F043
:1059A000F5FA802300222063E250154B5146029302
:1059B000144B154A0193154B0A200093144B00F029
:1059C000E5FA84230121E0500020217005B0F0BCED
:1059D000BB46B246A946A046F0BDC046C8D400109A
:1059E00078CC001091600010E5600010D1600010CC
:1059F000C1600010D9600010AD600010A9600010F7
:105A0000E1600010B9600010C9600010DD60001096
:105A1000D56000103823CA5C10B5002A00D010BD34
:105A20000132CA544C33C05800F0F2FA0028F6D0C4
:105A3000014800F085FCF2E7D8D40010F0B54646E6
:105A40004F46D6460500C0B58426022384B0A85927
:105A50003827984600F0CEFA002836D0A85900F032
:105A6000F9FA4346C355436C0400002B1CDBFEF7D8
:105A7000D7FC226C636C894611008246194308D01A
:105A8000A868E96812184B41994502DC0CD192458F
:105A90000AD9E36C002B11D06068984700222100DE
:105AA0002800FFF78FF909E0002221002800FFF706
:105AB0007FF9002221002800FFF784F90023E35535
:105AC000A85900F097FA0028C8D12900102268468A
:105AD00018310835FEF7D2F80FCDFEF777FCC00F6E
